{
  "_format": "hh-sol-artifact-1",
  "contractName": "aUSDToken",
  "sourceName": "contracts/aUSD.sol",
  "abi": [
    {
      "inputs": [],
      "stateMutability": "nonpayable",
      "type": "constructor"
    },
    {
      "inputs": [],
      "name": "ECDSAInvalidSignature",
      "type": "error"
    },
    {
      "inputs": [
        {
          "internalType": "uint256",
          "name": "length",
          "type": "uint256"
        }
      ],
      "name": "ECDSAInvalidSignatureLength",
      "type": "error"
    },
    {
      "inputs": [
        {
          "internalType": "bytes32",
          "name": "s",
          "type": "bytes32"
        }
      ],
      "name": "ECDSAInvalidSignatureS",
      "type": "error"
    },
    {
      "inputs": [
        {
          "internalType": "address",
          "name": "spender",
          "type": "address"
        },
        {
          "internalType": "uint256",
          "name": "allowance",
          "type": "uint256"
        },
        {
          "internalType": "uint256",
          "name": "needed",
          "type": "uint256"
        }
      ],
      "name": "ERC20InsufficientAllowance",
      "type": "error"
    },
    {
      "inputs": [
        {
          "internalType": "address",
          "name": "sender",
          "type": "address"
        },
        {
          "internalType": "uint256",
          "name": "balance",
          "type": "uint256"
        },
        {
          "internalType": "uint256",
          "name": "needed",
          "type": "uint256"
        }
      ],
      "name": "ERC20InsufficientBalance",
      "type": "error"
    },
    {
      "inputs": [
        {
          "internalType": "address",
          "name": "approver",
          "type": "address"
        }
      ],
      "name": "ERC20InvalidApprover",
      "type": "error"
    },
    {
      "inputs": [
        {
          "internalType": "address",
          "name": "receiver",
          "type": "address"
        }
      ],
      "name": "ERC20InvalidReceiver",
      "type": "error"
    },
    {
      "inputs": [
        {
          "internalType": "address",
          "name": "sender",
          "type": "address"
        }
      ],
      "name": "ERC20InvalidSender",
      "type": "error"
    },
    {
      "inputs": [
        {
          "internalType": "address",
          "name": "spender",
          "type": "address"
        }
      ],
      "name": "ERC20InvalidSpender",
      "type": "error"
    },
    {
      "inputs": [
        {
          "internalType": "uint256",
          "name": "deadline",
          "type": "uint256"
        }
      ],
      "name": "ERC2612ExpiredSignature",
      "type": "error"
    },
    {
      "inputs": [
        {
          "internalType": "address",
          "name": "signer",
          "type": "address"
        },
        {
          "internalType": "address",
          "name": "owner",
          "type": "address"
        }
      ],
      "name": "ERC2612InvalidSigner",
      "type": "error"
    },
    {
      "inputs": [
        {
          "internalType": "address",
          "name": "account",
          "type": "address"
        },
        {
          "internalType": "uint256",
          "name": "currentNonce",
          "type": "uint256"
        }
      ],
      "name": "InvalidAccountNonce",
      "type": "error"
    },
    {
      "inputs": [],
      "name": "InvalidShortString",
      "type": "error"
    },
    {
      "inputs": [
        {
          "internalType": "address",
          "name": "owner",
          "type": "address"
        }
      ],
      "name": "OwnableInvalidOwner",
      "type": "error"
    },
    {
      "inputs": [
        {
          "internalType": "address",
          "name": "account",
          "type": "address"
        }
      ],
      "name": "OwnableUnauthorizedAccount",
      "type": "error"
    },
    {
      "inputs": [
        {
          "internalType": "string",
          "name": "str",
          "type": "string"
        }
      ],
      "name": "StringTooLong",
      "type": "error"
    },
    {
      "anonymous": false,
      "inputs": [
        {
          "indexed": true,
          "internalType": "address",
          "name": "owner",
          "type": "address"
        },
        {
          "indexed": true,
          "internalType": "address",
          "name": "spender",
          "type": "address"
        },
        {
          "indexed": false,
          "internalType": "uint256",
          "name": "value",
          "type": "uint256"
        }
      ],
      "name": "Approval",
      "type": "event"
    },
    {
      "anonymous": false,
      "inputs": [],
      "name": "EIP712DomainChanged",
      "type": "event"
    },
    {
      "anonymous": false,
      "inputs": [
        {
          "indexed": true,
          "internalType": "address",
          "name": "previousOwner",
          "type": "address"
        },
        {
          "indexed": true,
          "internalType": "address",
          "name": "newOwner",
          "type": "address"
        }
      ],
      "name": "OwnershipTransferred",
      "type": "event"
    },
    {
      "anonymous": false,
      "inputs": [
        {
          "indexed": true,
          "internalType": "address",
          "name": "from",
          "type": "address"
        },
        {
          "indexed": true,
          "internalType": "address",
          "name": "to",
          "type": "address"
        },
        {
          "indexed": false,
          "internalType": "uint256",
          "name": "value",
          "type": "uint256"
        }
      ],
      "name": "Transfer",
      "type": "event"
    },
    {
      "inputs": [],
      "name": "DOMAIN_SEPARATOR",
      "outputs": [
        {
          "internalType": "bytes32",
          "name": "",
          "type": "bytes32"
        }
      ],
      "stateMutability": "view",
      "type": "function"
    },
    {
      "inputs": [
        {
          "internalType": "address",
          "name": "owner",
          "type": "address"
        },
        {
          "internalType": "address",
          "name": "spender",
          "type": "address"
        }
      ],
      "name": "allowance",
      "outputs": [
        {
          "internalType": "uint256",
          "name": "",
          "type": "uint256"
        }
      ],
      "stateMutability": "view",
      "type": "function"
    },
    {
      "inputs": [
        {
          "internalType": "address",
          "name": "spender",
          "type": "address"
        },
        {
          "internalType": "uint256",
          "name": "value",
          "type": "uint256"
        }
      ],
      "name": "approve",
      "outputs": [
        {
          "internalType": "bool",
          "name": "",
          "type": "bool"
        }
      ],
      "stateMutability": "nonpayable",
      "type": "function"
    },
    {
      "inputs": [
        {
          "internalType": "address",
          "name": "account",
          "type": "address"
        }
      ],
      "name": "balanceOf",
      "outputs": [
        {
          "internalType": "uint256",
          "name": "",
          "type": "uint256"
        }
      ],
      "stateMutability": "view",
      "type": "function"
    },
    {
      "inputs": [
        {
          "internalType": "address",
          "name": "from",
          "type": "address"
        },
        {
          "internalType": "uint256",
          "name": "amount",
          "type": "uint256"
        }
      ],
      "name": "burn",
      "outputs": [],
      "stateMutability": "nonpayable",
      "type": "function"
    },
    {
      "inputs": [],
      "name": "decimals",
      "outputs": [
        {
          "internalType": "uint8",
          "name": "",
          "type": "uint8"
        }
      ],
      "stateMutability": "view",
      "type": "function"
    },
    {
      "inputs": [],
      "name": "eip712Domain",
      "outputs": [
        {
          "internalType": "bytes1",
          "name": "fields",
          "type": "bytes1"
        },
        {
          "internalType": "string",
          "name": "name",
          "type": "string"
        },
        {
          "internalType": "string",
          "name": "version",
          "type": "string"
        },
        {
          "internalType": "uint256",
          "name": "chainId",
          "type": "uint256"
        },
        {
          "internalType": "address",
          "name": "verifyingContract",
          "type": "address"
        },
        {
          "internalType": "bytes32",
          "name": "salt",
          "type": "bytes32"
        },
        {
          "internalType": "uint256[]",
          "name": "extensions",
          "type": "uint256[]"
        }
      ],
      "stateMutability": "view",
      "type": "function"
    },
    {
      "inputs": [
        {
          "internalType": "address",
          "name": "to",
          "type": "address"
        },
        {
          "internalType": "uint256",
          "name": "amount",
          "type": "uint256"
        }
      ],
      "name": "mint",
      "outputs": [],
      "stateMutability": "nonpayable",
      "type": "function"
    },
    {
      "inputs": [],
      "name": "name",
      "outputs": [
        {
          "internalType": "string",
          "name": "",
          "type": "string"
        }
      ],
      "stateMutability": "view",
      "type": "function"
    },
    {
      "inputs": [
        {
          "internalType": "address",
          "name": "owner",
          "type": "address"
        }
      ],
      "name": "nonces",
      "outputs": [
        {
          "internalType": "uint256",
          "name": "",
          "type": "uint256"
        }
      ],
      "stateMutability": "view",
      "type": "function"
    },
    {
      "inputs": [],
      "name": "owner",
      "outputs": [
        {
          "internalType": "address",
          "name": "",
          "type": "address"
        }
      ],
      "stateMutability": "view",
      "type": "function"
    },
    {
      "inputs": [
        {
          "internalType": "address",
          "name": "owner",
          "type": "address"
        },
        {
          "internalType": "address",
          "name": "spender",
          "type": "address"
        },
        {
          "internalType": "uint256",
          "name": "value",
          "type": "uint256"
        },
        {
          "internalType": "uint256",
          "name": "deadline",
          "type": "uint256"
        },
        {
          "internalType": "uint8",
          "name": "v",
          "type": "uint8"
        },
        {
          "internalType": "bytes32",
          "name": "r",
          "type": "bytes32"
        },
        {
          "internalType": "bytes32",
          "name": "s",
          "type": "bytes32"
        }
      ],
      "name": "permit",
      "outputs": [],
      "stateMutability": "nonpayable",
      "type": "function"
    },
    {
      "inputs": [],
      "name": "renounceOwnership",
      "outputs": [],
      "stateMutability": "nonpayable",
      "type": "function"
    },
    {
      "inputs": [],
      "name": "symbol",
      "outputs": [
        {
          "internalType": "string",
          "name": "",
          "type": "string"
        }
      ],
      "stateMutability": "view",
      "type": "function"
    },
    {
      "inputs": [],
      "name": "totalSupply",
      "outputs": [
        {
          "internalType": "uint256",
          "name": "",
          "type": "uint256"
        }
      ],
      "stateMutability": "view",
      "type": "function"
    },
    {
      "inputs": [
        {
          "internalType": "address",
          "name": "to",
          "type": "address"
        },
        {
          "internalType": "uint256",
          "name": "value",
          "type": "uint256"
        }
      ],
      "name": "transfer",
      "outputs": [
        {
          "internalType": "bool",
          "name": "",
          "type": "bool"
        }
      ],
      "stateMutability": "nonpayable",
      "type": "function"
    },
    {
      "inputs": [
        {
          "internalType": "address",
          "name": "from",
          "type": "address"
        },
        {
          "internalType": "address",
          "name": "to",
          "type": "address"
        },
        {
          "internalType": "uint256",
          "name": "value",
          "type": "uint256"
        }
      ],
      "name": "transferFrom",
      "outputs": [
        {
          "internalType": "bool",
          "name": "",
          "type": "bool"
        }
      ],
      "stateMutability": "nonpayable",
      "type": "function"
    },
    {
      "inputs": [
        {
          "internalType": "address",
          "name": "newOwner",
          "type": "address"
        }
      ],
      "name": "transferOwnership",
      "outputs": [],
      "stateMutability": "nonpayable",
      "type": "function"
    }
  ],
  "bytecode": "0x61016060405234801561001157600080fd5b50336040518060400160405280600481526020017f6155534400000000000000000000000000000000000000000000000000000000815250806040518060400160405280600181526020017f31000000000000000000000000000000000000000000000000000000000000008152506040518060600160405280602281526020016129b2602291396040518060400160405280600481526020017f615553440000000000000000000000000000000000000000000000000000000081525081600390816100de9190610656565b5080600490816100ee9190610656565b50505061010560058361022360201b90919060201c565b610120818152505061012160068261022360201b90919060201c565b6101408181525050818051906020012060e08181525050808051906020012061010081815250504660a0818152505061015e61027360201b60201c565b608081815250503073ffffffffffffffffffffffffffffffffffffffff1660c08173ffffffffffffffffffffffffffffffffffffffff1681525050505050600073ffffffffffffffffffffffffffffffffffffffff168173ffffffffffffffffffffffffffffffffffffffff160361020e5760006040517f1e4fbdf70000000000000000000000000000000000000000000000000000000081526004016102059190610769565b60405180910390fd5b61021d816102ce60201b60201c565b5061093d565b60006020835110156102455761023e8361039460201b60201c565b905061026d565b82610255836103fc60201b60201c565b60000190816102649190610656565b5060ff60001b90505b92915050565b60007f8b73c3c69bb8fe3d512ecc4cf759cc79239f7b179b0ffacaa9a75d522b39400f60e0516101005146306040516020016102b39594939291906107ac565b60405160208183030381529060405280519060200120905090565b6000600860009054906101000a900473ffffffffffffffffffffffffffffffffffffffff16905081600860006101000a81548173ffffffffffffffffffffffffffffffffffffffff021916908373ffffffffffffffffffffffffffffffffffffffff1602179055508173ffffffffffffffffffffffffffffffffffffffff168173ffffffffffffffffffffffffffffffffffffffff167f8be0079c531659141344cd1fd0a4f28419497f9722a3daafe3b4186f6b6457e060405160405180910390a35050565b600080829050601f815111156103e157826040517f305a27a90000000000000000000000000000000000000000000000000000000081526004016103d89190610884565b60405180910390fd5b8051816103ed906108d6565b60001c1760001b915050919050565b6000819050919050565b600081519050919050565b7f4e487b7100000000000000000000000000000000000000000000000000000000600052604160045260246000fd5b7f4e487b7100000000000000000000000000000000000000000000000000000000600052602260045260246000fd5b6000600282049050600182168061048757607f821691505b60208210810361049a57610499610440565b5b50919050565b60008190508160005260206000209050919050565b60006020601f8301049050919050565b600082821b905092915050565b6000600883026105027fffffffffffffffffffffffffffffffffffffffffffffffffffffffffffffffff826104c5565b61050c86836104c5565b95508019841693508086168417925050509392505050565b6000819050919050565b6000819050919050565b600061055361054e61054984610524565b61052e565b610524565b9050919050565b6000819050919050565b61056d83610538565b6105816105798261055a565b8484546104d2565b825550505050565b600090565b610596610589565b6105a1818484610564565b505050565b5b818110156105c5576105ba60008261058e565b6001810190506105a7565b5050565b601f82111561060a576105db816104a0565b6105e4846104b5565b810160208510156105f3578190505b6106076105ff856104b5565b8301826105a6565b50505b505050565b600082821c905092915050565b600061062d6000198460080261060f565b1980831691505092915050565b6000610646838361061c565b9150826002028217905092915050565b61065f82610406565b67ffffffffffffffff81111561067857610677610411565b5b610682825461046f565b61068d8282856105c9565b600060209050601f8311600181146106c057600084156106ae578287015190505b6106b8858261063a565b865550610720565b601f1984166106ce866104a0565b60005b828110156106f6578489015182556001820191506020850194506020810190506106d1565b86831015610713578489015161070f601f89168261061c565b8355505b6001600288020188555050505b505050505050565b600073ffffffffffffffffffffffffffffffffffffffff82169050919050565b600061075382610728565b9050919050565b61076381610748565b82525050565b600060208201905061077e600083018461075a565b92915050565b6000819050919050565b61079781610784565b82525050565b6107a681610524565b82525050565b600060a0820190506107c1600083018861078e565b6107ce602083018761078e565b6107db604083018661078e565b6107e8606083018561079d565b6107f5608083018461075a565b9695505050505050565b600082825260208201905092915050565b60005b8381101561082e578082015181840152602081019050610813565b60008484015250505050565b6000601f19601f8301169050919050565b600061085682610406565b61086081856107ff565b9350610870818560208601610810565b6108798161083a565b840191505092915050565b6000602082019050818103600083015261089e818461084b565b905092915050565b600081519050919050565b6000819050602082019050919050565b60006108cd8251610784565b80915050919050565b60006108e1826108a6565b826108eb846108b1565b90506108f6816108c1565b92506020821015610936576109317fffffffffffffffffffffffffffffffffffffffffffffffffffffffffffffffff836020036008026104c5565b831692505b5050919050565b60805160a05160c05160e05161010051610120516101405161201b6109976000396000610dc001526000610d85015260006113570152600061133601526000610ab101526000610b0701526000610b30015261201b6000f3fe608060405234801561001057600080fd5b50600436106101165760003560e01c80637ecebe00116100a25780639dc29fac116100715780639dc29fac146102d9578063a9059cbb146102f5578063d505accf14610325578063dd62ed3e14610341578063f2fde38b1461037157610116565b80637ecebe001461024957806384b0196e146102795780638da5cb5b1461029d57806395d89b41146102bb57610116565b8063313ce567116100e9578063313ce567146101b75780633644e515146101d557806340c10f19146101f357806370a082311461020f578063715018a61461023f57610116565b806306fdde031461011b578063095ea7b31461013957806318160ddd1461016957806323b872dd14610187575b600080fd5b61012361038d565b6040516101309190611844565b60405180910390f35b610153600480360381019061014e91906118ff565b61041f565b604051610160919061195a565b60405180910390f35b610171610442565b60405161017e9190611984565b60405180910390f35b6101a1600480360381019061019c919061199f565b61044c565b6040516101ae919061195a565b60405180910390f35b6101bf61047b565b6040516101cc9190611a0e565b60405180910390f35b6101dd610484565b6040516101ea9190611a42565b60405180910390f35b61020d600480360381019061020891906118ff565b610493565b005b61022960048036038101906102249190611a5d565b6104a9565b6040516102369190611984565b60405180910390f35b6102476104f1565b005b610263600480360381019061025e9190611a5d565b610505565b6040516102709190611984565b60405180910390f35b610281610517565b6040516102949796959493929190611b92565b60405180910390f35b6102a56105c1565b6040516102b29190611c16565b60405180910390f35b6102c36105eb565b6040516102d09190611844565b60405180910390f35b6102f360048036038101906102ee91906118ff565b61067d565b005b61030f600480360381019061030a91906118ff565b610693565b60405161031c919061195a565b60405180910390f35b61033f600480360381019061033a9190611c89565b6106b6565b005b61035b60048036038101906103569190611d2b565b6107fe565b6040516103689190611984565b60405180910390f35b61038b60048036038101906103869190611a5d565b610885565b005b60606003805461039c90611d9a565b80601f01602080910402602001604051908101604052809291908181526020018280546103c890611d9a565b80156104155780601f106103ea57610100808354040283529160200191610415565b820191906000526020600020905b8154815290600101906020018083116103f857829003601f168201915b5050505050905090565b60008061042a61090b565b9050610437818585610913565b600191505092915050565b6000600254905090565b60008061045761090b565b9050610464858285610925565b61046f8585856109b9565b60019150509392505050565b60006012905090565b600061048e610aad565b905090565b61049b610b64565b6104a58282610beb565b5050565b60008060008373ffffffffffffffffffffffffffffffffffffffff1673ffffffffffffffffffffffffffffffffffffffff168152602001908152602001600020549050919050565b6104f9610b64565b6105036000610c6d565b565b600061051082610d33565b9050919050565b60006060806000806000606061052b610d7c565b610533610db7565b46306000801b600067ffffffffffffffff81111561055457610553611dcb565b5b6040519080825280602002602001820160405280156105825781602001602082028036833780820191505090505b507f0f00000000000000000000000000000000000000000000000000000000000000959493929190965096509650965096509650965090919293949596565b6000600860009054906101000a900473ffffffffffffffffffffffffffffffffffffffff16905090565b6060600480546105fa90611d9a565b80601f016020809104026020016040519081016040528092919081815260200182805461062690611d9a565b80156106735780601f1061064857610100808354040283529160200191610673565b820191906000526020600020905b81548152906001019060200180831161065657829003601f168201915b5050505050905090565b610685610b64565b61068f8282610df2565b5050565b60008061069e61090b565b90506106ab8185856109b9565b600191505092915050565b834211156106fb57836040517f627913020000000000000000000000000000000000000000000000000000000081526004016106f29190611984565b60405180910390fd5b60007f6e71edae12b1b97f4d1f60370fef10105fa2faae0126114a169c64845d6126c988888861072a8c610e74565b8960405160200161074096959493929190611dfa565b604051602081830303815290604052805190602001209050600061076382610ecb565b9050600061077382878787610ee5565b90508973ffffffffffffffffffffffffffffffffffffffff168173ffffffffffffffffffffffffffffffffffffffff16146107e757808a6040517f4b800e460000000000000000000000000000000000000000000000000000000081526004016107de929190611e5b565b60405180910390fd5b6107f28a8a8a610913565b50505050505050505050565b6000600160008473ffffffffffffffffffffffffffffffffffffffff1673ffffffffffffffffffffffffffffffffffffffff16815260200190815260200160002060008373ffffffffffffffffffffffffffffffffffffffff1673ffffffffffffffffffffffffffffffffffffffff16815260200190815260200160002054905092915050565b61088d610b64565b600073ffffffffffffffffffffffffffffffffffffffff168173ffffffffffffffffffffffffffffffffffffffff16036108ff5760006040517f1e4fbdf70000000000000000000000000000000000000000000000000000000081526004016108f69190611c16565b60405180910390fd5b61090881610c6d565b50565b600033905090565b6109208383836001610f15565b505050565b600061093184846107fe565b90507fffffffffffffffffffffffffffffffffffffffffffffffffffffffffffffffff81146109b357818110156109a3578281836040517ffb8f41b200000000000000000000000000000000000000000000000000000000815260040161099a93929190611e84565b60405180910390fd5b6109b284848484036000610f15565b5b50505050565b600073ffffffffffffffffffffffffffffffffffffffff168373ffffffffffffffffffffffffffffffffffffffff1603610a2b5760006040517f96c6fd1e000000000000000000000000000000000000000000000000000000008152600401610a229190611c16565b60405180910390fd5b600073ffffffffffffffffffffffffffffffffffffffff168273ffffffffffffffffffffffffffffffffffffffff1603610a9d5760006040517fec442f05000000000000000000000000000000000000000000000000000000008152600401610a949190611c16565b60405180910390fd5b610aa88383836110ec565b505050565b60007f000000000000000000000000000000000000000000000000000000000000000073ffffffffffffffffffffffffffffffffffffffff163073ffffffffffffffffffffffffffffffffffffffff16148015610b2957507f000000000000000000000000000000000000000000000000000000000000000046145b15610b56577f00000000000000000000000000000000000000000000000000000000000000009050610b61565b610b5e611311565b90505b90565b610b6c61090b565b73ffffffffffffffffffffffffffffffffffffffff16610b8a6105c1565b73ffffffffffffffffffffffffffffffffffffffff1614610be957610bad61090b565b6040517f118cdaa7000000000000000000000000000000000000000000000000000000008152600401610be09190611c16565b60405180910390fd5b565b600073ffffffffffffffffffffffffffffffffffffffff168273ffffffffffffffffffffffffffffffffffffffff1603610c5d5760006040517fec442f05000000000000000000000000000000000000000000000000000000008152600401610c549190611c16565b60405180910390fd5b610c69600083836110ec565b5050565b6000600860009054906101000a900473ffffffffffffffffffffffffffffffffffffffff16905081600860006101000a81548173ffffffffffffffffffffffffffffffffffffffff021916908373ffffffffffffffffffffffffffffffffffffffff1602179055508173ffffffffffffffffffffffffffffffffffffffff168173ffffffffffffffffffffffffffffffffffffffff167f8be0079c531659141344cd1fd0a4f28419497f9722a3daafe3b4186f6b6457e060405160405180910390a35050565b6000600760008373ffffffffffffffffffffffffffffffffffffffff1673ffffffffffffffffffffffffffffffffffffffff168152602001908152602001600020549050919050565b6060610db260057f00000000000000000000000000000000000000000000000000000000000000006113a790919063ffffffff16565b905090565b6060610ded60067f00000000000000000000000000000000000000000000000000000000000000006113a790919063ffffffff16565b905090565b600073ffffffffffffffffffffffffffffffffffffffff168273ffffffffffffffffffffffffffffffffffffffff1603610e645760006040517f96c6fd1e000000000000000000000000000000000000000000000000000000008152600401610e5b9190611c16565b60405180910390fd5b610e70826000836110ec565b5050565b6000600760008373ffffffffffffffffffffffffffffffffffffffff1673ffffffffffffffffffffffffffffffffffffffff1681526020019081526020016000206000815480929190600101919050559050919050565b6000610ede610ed8610aad565b83611457565b9050919050565b600080600080610ef788888888611498565b925092509250610f07828261158c565b829350505050949350505050565b600073ffffffffffffffffffffffffffffffffffffffff168473ffffffffffffffffffffffffffffffffffffffff1603610f875760006040517fe602df05000000000000000000000000000000000000000000000000000000008152600401610f7e9190611c16565b60405180910390fd5b600073ffffffffffffffffffffffffffffffffffffffff168373ffffffffffffffffffffffffffffffffffffffff1603610ff95760006040517f94280d62000000000000000000000000000000000000000000000000000000008152600401610ff09190611c16565b60405180910390fd5b81600160008673ffffffffffffffffffffffffffffffffffffffff1673ffffffffffffffffffffffffffffffffffffffff16815260200190815260200160002060008573ffffffffffffffffffffffffffffffffffffffff1673ffffffffffffffffffffffffffffffffffffffff1681526020019081526020016000208190555080156110e6578273ffffffffffffffffffffffffffffffffffffffff168473ffffffffffffffffffffffffffffffffffffffff167f8c5be1e5ebec7d5bd14f71427d1e84f3dd0314c0f7b2291e5b200ac8c7c3b925846040516110dd9190611984565b60405180910390a35b50505050565b600073ffffffffffffffffffffffffffffffffffffffff168373ffffffffffffffffffffffffffffffffffffffff160361113e5780600260008282546111329190611eea565b92505081905550611211565b60008060008573ffffffffffffffffffffffffffffffffffffffff1673ffffffffffffffffffffffffffffffffffffffff168152602001908152602001600020549050818110156111ca578381836040517fe450d38c0000000000000000000000000000000000000000000000000000000081526004016111c193929190611e84565b60405180910390fd5b8181036000808673ffffffffffffffffffffffffffffffffffffffff1673ffffffffffffffffffffffffffffffffffffffff16815260200190815260200160002081905550505b600073ffffffffffffffffffffffffffffffffffffffff168273ffffffffffffffffffffffffffffffffffffffff160361125a57806002600082825403925050819055506112a7565b806000808473ffffffffffffffffffffffffffffffffffffffff1673ffffffffffffffffffffffffffffffffffffffff168152602001908152602001600020600082825401925050819055505b8173ffffffffffffffffffffffffffffffffffffffff168373ffffffffffffffffffffffffffffffffffffffff167fddf252ad1be2c89b69c2b068fc378daa952ba7f163c4a11628f55a4df523b3ef836040516113049190611984565b60405180910390a3505050565b60007f8b73c3c69bb8fe3d512ecc4cf759cc79239f7b179b0ffacaa9a75d522b39400f7f00000000000000000000000000000000000000000000000000000000000000007f0000000000000000000000000000000000000000000000000000000000000000463060405160200161138c959493929190611f1e565b60405160208183030381529060405280519060200120905090565b606060ff60001b83146113c4576113bd836116f0565b9050611451565b8180546113d090611d9a565b80601f01602080910402602001604051908101604052809291908181526020018280546113fc90611d9a565b80156114495780601f1061141e57610100808354040283529160200191611449565b820191906000526020600020905b81548152906001019060200180831161142c57829003601f168201915b505050505090505b92915050565b60006040517f190100000000000000000000000000000000000000000000000000000000000081528360028201528260228201526042812091505092915050565b60008060007f7fffffffffffffffffffffffffffffff5d576e7357a4501ddfe92f46681b20a08460001c11156114d8576000600385925092509250611582565b6000600188888888604051600081526020016040526040516114fd9493929190611f71565b6020604051602081039080840390855afa15801561151f573d6000803e3d6000fd5b505050602060405103519050600073ffffffffffffffffffffffffffffffffffffffff168173ffffffffffffffffffffffffffffffffffffffff160361157357600060016000801b93509350935050611582565b8060008060001b935093509350505b9450945094915050565b600060038111156115a05761159f611fb6565b5b8260038111156115b3576115b2611fb6565b5b03156116ec57600160038111156115cd576115cc611fb6565b5b8260038111156115e0576115df611fb6565b5b03611617576040517ff645eedf00000000000000000000000000000000000000000000000000000000815260040160405180910390fd5b6002600381111561162b5761162a611fb6565b5b82600381111561163e5761163d611fb6565b5b03611683578060001c6040517ffce698f700000000000000000000000000000000000000000000000000000000815260040161167a9190611984565b60405180910390fd5b60038081111561169657611695611fb6565b5b8260038111156116a9576116a8611fb6565b5b036116eb57806040517fd78bce0c0000000000000000000000000000000000000000000000000000000081526004016116e29190611a42565b60405180910390fd5b5b5050565b606060006116fd83611764565b90506000602067ffffffffffffffff81111561171c5761171b611dcb565b5b6040519080825280601f01601f19166020018201604052801561174e5781602001600182028036833780820191505090505b5090508181528360208201528092505050919050565b60008060ff8360001c169050601f8111156117ab576040517fb3512b0c00000000000000000000000000000000000000000000000000000000815260040160405180910390fd5b80915050919050565b600081519050919050565b600082825260208201905092915050565b60005b838110156117ee5780820151818401526020810190506117d3565b60008484015250505050565b6000601f19601f8301169050919050565b6000611816826117b4565b61182081856117bf565b93506118308185602086016117d0565b611839816117fa565b840191505092915050565b6000602082019050818103600083015261185e818461180b565b905092915050565b600080fd5b600073ffffffffffffffffffffffffffffffffffffffff82169050919050565b60006118968261186b565b9050919050565b6118a68161188b565b81146118b157600080fd5b50565b6000813590506118c38161189d565b92915050565b6000819050919050565b6118dc816118c9565b81146118e757600080fd5b50565b6000813590506118f9816118d3565b92915050565b6000806040838503121561191657611915611866565b5b6000611924858286016118b4565b9250506020611935858286016118ea565b9150509250929050565b60008115159050919050565b6119548161193f565b82525050565b600060208201905061196f600083018461194b565b92915050565b61197e816118c9565b82525050565b60006020820190506119996000830184611975565b92915050565b6000806000606084860312156119b8576119b7611866565b5b60006119c6868287016118b4565b93505060206119d7868287016118b4565b92505060406119e8868287016118ea565b9150509250925092565b600060ff82169050919050565b611a08816119f2565b82525050565b6000602082019050611a2360008301846119ff565b92915050565b6000819050919050565b611a3c81611a29565b82525050565b6000602082019050611a576000830184611a33565b92915050565b600060208284031215611a7357611a72611866565b5b6000611a81848285016118b4565b91505092915050565b60007fff0000000000000000000000000000000000000000000000000000000000000082169050919050565b611abf81611a8a565b82525050565b611ace8161188b565b82525050565b600081519050919050565b600082825260208201905092915050565b6000819050602082019050919050565b611b09816118c9565b82525050565b6000611b1b8383611b00565b60208301905092915050565b6000602082019050919050565b6000611b3f82611ad4565b611b498185611adf565b9350611b5483611af0565b8060005b83811015611b85578151611b6c8882611b0f565b9750611b7783611b27565b925050600181019050611b58565b5085935050505092915050565b600060e082019050611ba7600083018a611ab6565b8181036020830152611bb9818961180b565b90508181036040830152611bcd818861180b565b9050611bdc6060830187611975565b611be96080830186611ac5565b611bf660a0830185611a33565b81810360c0830152611c088184611b34565b905098975050505050505050565b6000602082019050611c2b6000830184611ac5565b92915050565b611c3a816119f2565b8114611c4557600080fd5b50565b600081359050611c5781611c31565b92915050565b611c6681611a29565b8114611c7157600080fd5b50565b600081359050611c8381611c5d565b92915050565b600080600080600080600060e0888a031215611ca857611ca7611866565b5b6000611cb68a828b016118b4565b9750506020611cc78a828b016118b4565b9650506040611cd88a828b016118ea565b9550506060611ce98a828b016118ea565b9450506080611cfa8a828b01611c48565b93505060a0611d0b8a828b01611c74565b92505060c0611d1c8a828b01611c74565b91505092959891949750929550565b60008060408385031215611d4257611d41611866565b5b6000611d50858286016118b4565b9250506020611d61858286016118b4565b9150509250929050565b7f4e487b7100000000000000000000000000000000000000000000000000000000600052602260045260246000fd5b60006002820490506001821680611db257607f821691505b602082108103611dc557611dc4611d6b565b5b50919050565b7f4e487b7100000000000000000000000000000000000000000000000000000000600052604160045260246000fd5b600060c082019050611e0f6000830189611a33565b611e1c6020830188611ac5565b611e296040830187611ac5565b611e366060830186611975565b611e436080830185611975565b611e5060a0830184611975565b979650505050505050565b6000604082019050611e706000830185611ac5565b611e7d6020830184611ac5565b9392505050565b6000606082019050611e996000830186611ac5565b611ea66020830185611975565b611eb36040830184611975565b949350505050565b7f4e487b7100000000000000000000000000000000000000000000000000000000600052601160045260246000fd5b6000611ef5826118c9565b9150611f00836118c9565b9250828201905080821115611f1857611f17611ebb565b5b92915050565b600060a082019050611f336000830188611a33565b611f406020830187611a33565b611f4d6040830186611a33565b611f5a6060830185611975565b611f676080830184611ac5565b9695505050505050565b6000608082019050611f866000830187611a33565b611f9360208301866119ff565b611fa06040830185611a33565b611fad6060830184611a33565b95945050505050565b7f4e487b7100000000000000000000000000000000000000000000000000000000600052602160045260246000fdfea2646970667358221220352214c07a6f2d2ae7e2c91899afb47b568ddd8805152554f1e9d0642f7fdec264736f6c634300081b00334173736574636861696e20555344205969656c642d42656172696e6720546f6b656e",
  "linkReferences": {},
  "deployedLinkReferences": {}
}