{
  "_format": "hh-sol-artifact-1",
  "contractName": "ERC20PermitOwnable",
  "sourceName": "contracts/aUSDToken.sol",
  "abi": [
    {
      "inputs": [],
      "stateMutability": "nonpayable",
      "type": "constructor"
    },
    {
      "inputs": [],
      "name": "ECDSAInvalidSignature",
      "type": "error"
    },
    {
      "inputs": [
        {
          "internalType": "uint256",
          "name": "length",
          "type": "uint256"
        }
      ],
      "name": "ECDSAInvalidSignatureLength",
      "type": "error"
    },
    {
      "inputs": [
        {
          "internalType": "bytes32",
          "name": "s",
          "type": "bytes32"
        }
      ],
      "name": "ECDSAInvalidSignatureS",
      "type": "error"
    },
    {
      "inputs": [
        {
          "internalType": "address",
          "name": "spender",
          "type": "address"
        },
        {
          "internalType": "uint256",
          "name": "allowance",
          "type": "uint256"
        },
        {
          "internalType": "uint256",
          "name": "needed",
          "type": "uint256"
        }
      ],
      "name": "ERC20InsufficientAllowance",
      "type": "error"
    },
    {
      "inputs": [
        {
          "internalType": "address",
          "name": "sender",
          "type": "address"
        },
        {
          "internalType": "uint256",
          "name": "balance",
          "type": "uint256"
        },
        {
          "internalType": "uint256",
          "name": "needed",
          "type": "uint256"
        }
      ],
      "name": "ERC20InsufficientBalance",
      "type": "error"
    },
    {
      "inputs": [
        {
          "internalType": "address",
          "name": "approver",
          "type": "address"
        }
      ],
      "name": "ERC20InvalidApprover",
      "type": "error"
    },
    {
      "inputs": [
        {
          "internalType": "address",
          "name": "receiver",
          "type": "address"
        }
      ],
      "name": "ERC20InvalidReceiver",
      "type": "error"
    },
    {
      "inputs": [
        {
          "internalType": "address",
          "name": "sender",
          "type": "address"
        }
      ],
      "name": "ERC20InvalidSender",
      "type": "error"
    },
    {
      "inputs": [
        {
          "internalType": "address",
          "name": "spender",
          "type": "address"
        }
      ],
      "name": "ERC20InvalidSpender",
      "type": "error"
    },
    {
      "inputs": [
        {
          "internalType": "uint256",
          "name": "deadline",
          "type": "uint256"
        }
      ],
      "name": "ERC2612ExpiredSignature",
      "type": "error"
    },
    {
      "inputs": [
        {
          "internalType": "address",
          "name": "signer",
          "type": "address"
        },
        {
          "internalType": "address",
          "name": "owner",
          "type": "address"
        }
      ],
      "name": "ERC2612InvalidSigner",
      "type": "error"
    },
    {
      "inputs": [
        {
          "internalType": "address",
          "name": "account",
          "type": "address"
        },
        {
          "internalType": "uint256",
          "name": "currentNonce",
          "type": "uint256"
        }
      ],
      "name": "InvalidAccountNonce",
      "type": "error"
    },
    {
      "inputs": [],
      "name": "InvalidShortString",
      "type": "error"
    },
    {
      "inputs": [
        {
          "internalType": "address",
          "name": "owner",
          "type": "address"
        }
      ],
      "name": "OwnableInvalidOwner",
      "type": "error"
    },
    {
      "inputs": [
        {
          "internalType": "address",
          "name": "account",
          "type": "address"
        }
      ],
      "name": "OwnableUnauthorizedAccount",
      "type": "error"
    },
    {
      "inputs": [
        {
          "internalType": "string",
          "name": "str",
          "type": "string"
        }
      ],
      "name": "StringTooLong",
      "type": "error"
    },
    {
      "anonymous": false,
      "inputs": [
        {
          "indexed": true,
          "internalType": "address",
          "name": "owner",
          "type": "address"
        },
        {
          "indexed": true,
          "internalType": "address",
          "name": "spender",
          "type": "address"
        },
        {
          "indexed": false,
          "internalType": "uint256",
          "name": "value",
          "type": "uint256"
        }
      ],
      "name": "Approval",
      "type": "event"
    },
    {
      "anonymous": false,
      "inputs": [],
      "name": "EIP712DomainChanged",
      "type": "event"
    },
    {
      "anonymous": false,
      "inputs": [
        {
          "indexed": true,
          "internalType": "address",
          "name": "previousOwner",
          "type": "address"
        },
        {
          "indexed": true,
          "internalType": "address",
          "name": "newOwner",
          "type": "address"
        }
      ],
      "name": "OwnershipTransferred",
      "type": "event"
    },
    {
      "anonymous": false,
      "inputs": [
        {
          "indexed": true,
          "internalType": "address",
          "name": "from",
          "type": "address"
        },
        {
          "indexed": true,
          "internalType": "address",
          "name": "to",
          "type": "address"
        },
        {
          "indexed": false,
          "internalType": "uint256",
          "name": "value",
          "type": "uint256"
        }
      ],
      "name": "Transfer",
      "type": "event"
    },
    {
      "inputs": [],
      "name": "DOMAIN_SEPARATOR",
      "outputs": [
        {
          "internalType": "bytes32",
          "name": "",
          "type": "bytes32"
        }
      ],
      "stateMutability": "view",
      "type": "function"
    },
    {
      "inputs": [
        {
          "internalType": "address",
          "name": "owner",
          "type": "address"
        },
        {
          "internalType": "address",
          "name": "spender",
          "type": "address"
        }
      ],
      "name": "allowance",
      "outputs": [
        {
          "internalType": "uint256",
          "name": "",
          "type": "uint256"
        }
      ],
      "stateMutability": "view",
      "type": "function"
    },
    {
      "inputs": [
        {
          "internalType": "address",
          "name": "spender",
          "type": "address"
        },
        {
          "internalType": "uint256",
          "name": "value",
          "type": "uint256"
        }
      ],
      "name": "approve",
      "outputs": [
        {
          "internalType": "bool",
          "name": "",
          "type": "bool"
        }
      ],
      "stateMutability": "nonpayable",
      "type": "function"
    },
    {
      "inputs": [
        {
          "internalType": "address",
          "name": "account",
          "type": "address"
        }
      ],
      "name": "balanceOf",
      "outputs": [
        {
          "internalType": "uint256",
          "name": "",
          "type": "uint256"
        }
      ],
      "stateMutability": "view",
      "type": "function"
    },
    {
      "inputs": [
        {
          "internalType": "address",
          "name": "from",
          "type": "address"
        },
        {
          "internalType": "uint256",
          "name": "amount",
          "type": "uint256"
        }
      ],
      "name": "burn",
      "outputs": [],
      "stateMutability": "nonpayable",
      "type": "function"
    },
    {
      "inputs": [
        {
          "internalType": "address",
          "name": "account",
          "type": "address"
        },
        {
          "internalType": "uint256",
          "name": "amount",
          "type": "uint256"
        }
      ],
      "name": "burnFrom",
      "outputs": [],
      "stateMutability": "nonpayable",
      "type": "function"
    },
    {
      "inputs": [],
      "name": "decimals",
      "outputs": [
        {
          "internalType": "uint8",
          "name": "",
          "type": "uint8"
        }
      ],
      "stateMutability": "view",
      "type": "function"
    },
    {
      "inputs": [],
      "name": "eip712Domain",
      "outputs": [
        {
          "internalType": "bytes1",
          "name": "fields",
          "type": "bytes1"
        },
        {
          "internalType": "string",
          "name": "name",
          "type": "string"
        },
        {
          "internalType": "string",
          "name": "version",
          "type": "string"
        },
        {
          "internalType": "uint256",
          "name": "chainId",
          "type": "uint256"
        },
        {
          "internalType": "address",
          "name": "verifyingContract",
          "type": "address"
        },
        {
          "internalType": "bytes32",
          "name": "salt",
          "type": "bytes32"
        },
        {
          "internalType": "uint256[]",
          "name": "extensions",
          "type": "uint256[]"
        }
      ],
      "stateMutability": "view",
      "type": "function"
    },
    {
      "inputs": [
        {
          "internalType": "address",
          "name": "to",
          "type": "address"
        },
        {
          "internalType": "uint256",
          "name": "amount",
          "type": "uint256"
        }
      ],
      "name": "mint",
      "outputs": [],
      "stateMutability": "nonpayable",
      "type": "function"
    },
    {
      "inputs": [],
      "name": "name",
      "outputs": [
        {
          "internalType": "string",
          "name": "",
          "type": "string"
        }
      ],
      "stateMutability": "view",
      "type": "function"
    },
    {
      "inputs": [
        {
          "internalType": "address",
          "name": "owner",
          "type": "address"
        }
      ],
      "name": "nonces",
      "outputs": [
        {
          "internalType": "uint256",
          "name": "",
          "type": "uint256"
        }
      ],
      "stateMutability": "view",
      "type": "function"
    },
    {
      "inputs": [],
      "name": "owner",
      "outputs": [
        {
          "internalType": "address",
          "name": "",
          "type": "address"
        }
      ],
      "stateMutability": "view",
      "type": "function"
    },
    {
      "inputs": [
        {
          "internalType": "address",
          "name": "owner",
          "type": "address"
        },
        {
          "internalType": "address",
          "name": "spender",
          "type": "address"
        },
        {
          "internalType": "uint256",
          "name": "value",
          "type": "uint256"
        },
        {
          "internalType": "uint256",
          "name": "deadline",
          "type": "uint256"
        },
        {
          "internalType": "uint8",
          "name": "v",
          "type": "uint8"
        },
        {
          "internalType": "bytes32",
          "name": "r",
          "type": "bytes32"
        },
        {
          "internalType": "bytes32",
          "name": "s",
          "type": "bytes32"
        }
      ],
      "name": "permit",
      "outputs": [],
      "stateMutability": "nonpayable",
      "type": "function"
    },
    {
      "inputs": [],
      "name": "renounceOwnership",
      "outputs": [],
      "stateMutability": "nonpayable",
      "type": "function"
    },
    {
      "inputs": [],
      "name": "symbol",
      "outputs": [
        {
          "internalType": "string",
          "name": "",
          "type": "string"
        }
      ],
      "stateMutability": "view",
      "type": "function"
    },
    {
      "inputs": [],
      "name": "totalSupply",
      "outputs": [
        {
          "internalType": "uint256",
          "name": "",
          "type": "uint256"
        }
      ],
      "stateMutability": "view",
      "type": "function"
    },
    {
      "inputs": [
        {
          "internalType": "address",
          "name": "to",
          "type": "address"
        },
        {
          "internalType": "uint256",
          "name": "value",
          "type": "uint256"
        }
      ],
      "name": "transfer",
      "outputs": [
        {
          "internalType": "bool",
          "name": "",
          "type": "bool"
        }
      ],
      "stateMutability": "nonpayable",
      "type": "function"
    },
    {
      "inputs": [
        {
          "internalType": "address",
          "name": "from",
          "type": "address"
        },
        {
          "internalType": "address",
          "name": "to",
          "type": "address"
        },
        {
          "internalType": "uint256",
          "name": "value",
          "type": "uint256"
        }
      ],
      "name": "transferFrom",
      "outputs": [
        {
          "internalType": "bool",
          "name": "",
          "type": "bool"
        }
      ],
      "stateMutability": "nonpayable",
      "type": "function"
    },
    {
      "inputs": [
        {
          "internalType": "address",
          "name": "newOwner",
          "type": "address"
        }
      ],
      "name": "transferOwnership",
      "outputs": [],
      "stateMutability": "nonpayable",
      "type": "function"
    }
  ],
  "bytecode": "0x61016060405234801561001157600080fd5b50336040518060400160405280600481526020017f6155534400000000000000000000000000000000000000000000000000000000815250806040518060400160405280600181526020017f31000000000000000000000000000000000000000000000000000000000000008152506040518060400160405280600e81526020017f4173736574636861696e205553440000000000000000000000000000000000008152506040518060400160405280600481526020017f615553440000000000000000000000000000000000000000000000000000000081525081600390816100fb9190610673565b50806004908161010b9190610673565b50505061012260058361024060201b90919060201c565b610120818152505061013e60068261024060201b90919060201c565b6101408181525050818051906020012060e08181525050808051906020012061010081815250504660a0818152505061017b61029060201b60201c565b608081815250503073ffffffffffffffffffffffffffffffffffffffff1660c08173ffffffffffffffffffffffffffffffffffffffff1681525050505050600073ffffffffffffffffffffffffffffffffffffffff168173ffffffffffffffffffffffffffffffffffffffff160361022b5760006040517f1e4fbdf70000000000000000000000000000000000000000000000000000000081526004016102229190610786565b60405180910390fd5b61023a816102eb60201b60201c565b5061095a565b60006020835110156102625761025b836103b160201b60201c565b905061028a565b826102728361041960201b60201c565b60000190816102819190610673565b5060ff60001b90505b92915050565b60007f8b73c3c69bb8fe3d512ecc4cf759cc79239f7b179b0ffacaa9a75d522b39400f60e0516101005146306040516020016102d09594939291906107c9565b60405160208183030381529060405280519060200120905090565b6000600860009054906101000a900473ffffffffffffffffffffffffffffffffffffffff16905081600860006101000a81548173ffffffffffffffffffffffffffffffffffffffff021916908373ffffffffffffffffffffffffffffffffffffffff1602179055508173ffffffffffffffffffffffffffffffffffffffff168173ffffffffffffffffffffffffffffffffffffffff167f8be0079c531659141344cd1fd0a4f28419497f9722a3daafe3b4186f6b6457e060405160405180910390a35050565b600080829050601f815111156103fe57826040517f305a27a90000000000000000000000000000000000000000000000000000000081526004016103f591906108a1565b60405180910390fd5b80518161040a906108f3565b60001c1760001b915050919050565b6000819050919050565b600081519050919050565b7f4e487b7100000000000000000000000000000000000000000000000000000000600052604160045260246000fd5b7f4e487b7100000000000000000000000000000000000000000000000000000000600052602260045260246000fd5b600060028204905060018216806104a457607f821691505b6020821081036104b7576104b661045d565b5b50919050565b60008190508160005260206000209050919050565b60006020601f8301049050919050565b600082821b905092915050565b60006008830261051f7fffffffffffffffffffffffffffffffffffffffffffffffffffffffffffffffff826104e2565b61052986836104e2565b95508019841693508086168417925050509392505050565b6000819050919050565b6000819050919050565b600061057061056b61056684610541565b61054b565b610541565b9050919050565b6000819050919050565b61058a83610555565b61059e61059682610577565b8484546104ef565b825550505050565b600090565b6105b36105a6565b6105be818484610581565b505050565b5b818110156105e2576105d76000826105ab565b6001810190506105c4565b5050565b601f821115610627576105f8816104bd565b610601846104d2565b81016020851015610610578190505b61062461061c856104d2565b8301826105c3565b50505b505050565b600082821c905092915050565b600061064a6000198460080261062c565b1980831691505092915050565b60006106638383610639565b9150826002028217905092915050565b61067c82610423565b67ffffffffffffffff8111156106955761069461042e565b5b61069f825461048c565b6106aa8282856105e6565b600060209050601f8311600181146106dd57600084156106cb578287015190505b6106d58582610657565b86555061073d565b601f1984166106eb866104bd565b60005b82811015610713578489015182556001820191506020850194506020810190506106ee565b86831015610730578489015161072c601f891682610639565b8355505b6001600288020188555050505b505050505050565b600073ffffffffffffffffffffffffffffffffffffffff82169050919050565b600061077082610745565b9050919050565b61078081610765565b82525050565b600060208201905061079b6000830184610777565b92915050565b6000819050919050565b6107b4816107a1565b82525050565b6107c381610541565b82525050565b600060a0820190506107de60008301886107ab565b6107eb60208301876107ab565b6107f860408301866107ab565b61080560608301856107ba565b6108126080830184610777565b9695505050505050565b600082825260208201905092915050565b60005b8381101561084b578082015181840152602081019050610830565b60008484015250505050565b6000601f19601f8301169050919050565b600061087382610423565b61087d818561081c565b935061088d81856020860161082d565b61089681610857565b840191505092915050565b600060208201905081810360008301526108bb8184610868565b905092915050565b600081519050919050565b6000819050602082019050919050565b60006108ea82516107a1565b80915050919050565b60006108fe826108c3565b82610908846108ce565b9050610913816108de565b925060208210156109535761094e7fffffffffffffffffffffffffffffffffffffffffffffffffffffffffffffffff836020036008026104e2565b831692505b5050919050565b60805160a05160c05160e0516101005161012051610140516120626109b46000396000610e8901526000610e4e0152600061139e0152600061137d01526000610af801526000610b4e01526000610b7701526120626000f3fe608060405234801561001057600080fd5b50600436106101215760003560e01c806379cc6790116100ad5780639dc29fac116100715780639dc29fac14610300578063a9059cbb1461031c578063d505accf1461034c578063dd62ed3e14610368578063f2fde38b1461039857610121565b806379cc6790146102545780637ecebe001461027057806384b0196e146102a05780638da5cb5b146102c457806395d89b41146102e257610121565b8063313ce567116100f4578063313ce567146101c25780633644e515146101e057806340c10f19146101fe57806370a082311461021a578063715018a61461024a57610121565b806306fdde0314610126578063095ea7b31461014457806318160ddd1461017457806323b872dd14610192575b600080fd5b61012e6103b4565b60405161013b919061188b565b60405180910390f35b61015e60048036038101906101599190611946565b610446565b60405161016b91906119a1565b60405180910390f35b61017c610469565b60405161018991906119cb565b60405180910390f35b6101ac60048036038101906101a791906119e6565b610473565b6040516101b991906119a1565b60405180910390f35b6101ca6104a2565b6040516101d79190611a55565b60405180910390f35b6101e86104ab565b6040516101f59190611a89565b60405180910390f35b61021860048036038101906102139190611946565b6104ba565b005b610234600480360381019061022f9190611aa4565b6104d0565b60405161024191906119cb565b60405180910390f35b610252610518565b005b61026e60048036038101906102699190611946565b61052c565b005b61028a60048036038101906102859190611aa4565b61054c565b60405161029791906119cb565b60405180910390f35b6102a861055e565b6040516102bb9796959493929190611bd9565b60405180910390f35b6102cc610608565b6040516102d99190611c5d565b60405180910390f35b6102ea610632565b6040516102f7919061188b565b60405180910390f35b61031a60048036038101906103159190611946565b6106c4565b005b61033660048036038101906103319190611946565b6106da565b60405161034391906119a1565b60405180910390f35b61036660048036038101906103619190611cd0565b6106fd565b005b610382600480360381019061037d9190611d72565b610845565b60405161038f91906119cb565b60405180910390f35b6103b260048036038101906103ad9190611aa4565b6108cc565b005b6060600380546103c390611de1565b80601f01602080910402602001604051908101604052809291908181526020018280546103ef90611de1565b801561043c5780601f106104115761010080835404028352916020019161043c565b820191906000526020600020905b81548152906001019060200180831161041f57829003601f168201915b5050505050905090565b600080610451610952565b905061045e81858561095a565b600191505092915050565b6000600254905090565b60008061047e610952565b905061048b85828561096c565b610496858585610a00565b60019150509392505050565b60006006905090565b60006104b5610af4565b905090565b6104c2610bab565b6104cc8282610c32565b5050565b60008060008373ffffffffffffffffffffffffffffffffffffffff1673ffffffffffffffffffffffffffffffffffffffff168152602001908152602001600020549050919050565b610520610bab565b61052a6000610cb4565b565b61053e82610538610952565b8361096c565b6105488282610d7a565b5050565b600061055782610dfc565b9050919050565b600060608060008060006060610572610e45565b61057a610e80565b46306000801b600067ffffffffffffffff81111561059b5761059a611e12565b5b6040519080825280602002602001820160405280156105c95781602001602082028036833780820191505090505b507f0f00000000000000000000000000000000000000000000000000000000000000959493929190965096509650965096509650965090919293949596565b6000600860009054906101000a900473ffffffffffffffffffffffffffffffffffffffff16905090565b60606004805461064190611de1565b80601f016020809104026020016040519081016040528092919081815260200182805461066d90611de1565b80156106ba5780601f1061068f576101008083540402835291602001916106ba565b820191906000526020600020905b81548152906001019060200180831161069d57829003601f168201915b5050505050905090565b6106cc610bab565b6106d68282610d7a565b5050565b6000806106e5610952565b90506106f2818585610a00565b600191505092915050565b8342111561074257836040517f6279130200000000000000000000000000000000000000000000000000000000815260040161073991906119cb565b60405180910390fd5b60007f6e71edae12b1b97f4d1f60370fef10105fa2faae0126114a169c64845d6126c98888886107718c610ebb565b8960405160200161078796959493929190611e41565b60405160208183030381529060405280519060200120905060006107aa82610f12565b905060006107ba82878787610f2c565b90508973ffffffffffffffffffffffffffffffffffffffff168173ffffffffffffffffffffffffffffffffffffffff161461082e57808a6040517f4b800e46000000000000000000000000000000000000000000000000000000008152600401610825929190611ea2565b60405180910390fd5b6108398a8a8a61095a565b50505050505050505050565b6000600160008473ffffffffffffffffffffffffffffffffffffffff1673ffffffffffffffffffffffffffffffffffffffff16815260200190815260200160002060008373ffffffffffffffffffffffffffffffffffffffff1673ffffffffffffffffffffffffffffffffffffffff16815260200190815260200160002054905092915050565b6108d4610bab565b600073ffffffffffffffffffffffffffffffffffffffff168173ffffffffffffffffffffffffffffffffffffffff16036109465760006040517f1e4fbdf700000000000000000000000000000000000000000000000000000000815260040161093d9190611c5d565b60405180910390fd5b61094f81610cb4565b50565b600033905090565b6109678383836001610f5c565b505050565b60006109788484610845565b90507fffffffffffffffffffffffffffffffffffffffffffffffffffffffffffffffff81146109fa57818110156109ea578281836040517ffb8f41b20000000000000000000000000000000000000000000000000000000081526004016109e193929190611ecb565b60405180910390fd5b6109f984848484036000610f5c565b5b50505050565b600073ffffffffffffffffffffffffffffffffffffffff168373ffffffffffffffffffffffffffffffffffffffff1603610a725760006040517f96c6fd1e000000000000000000000000000000000000000000000000000000008152600401610a699190611c5d565b60405180910390fd5b600073ffffffffffffffffffffffffffffffffffffffff168273ffffffffffffffffffffffffffffffffffffffff1603610ae45760006040517fec442f05000000000000000000000000000000000000000000000000000000008152600401610adb9190611c5d565b60405180910390fd5b610aef838383611133565b505050565b60007f000000000000000000000000000000000000000000000000000000000000000073ffffffffffffffffffffffffffffffffffffffff163073ffffffffffffffffffffffffffffffffffffffff16148015610b7057507f000000000000000000000000000000000000000000000000000000000000000046145b15610b9d577f00000000000000000000000000000000000000000000000000000000000000009050610ba8565b610ba5611358565b90505b90565b610bb3610952565b73ffffffffffffffffffffffffffffffffffffffff16610bd1610608565b73ffffffffffffffffffffffffffffffffffffffff1614610c3057610bf4610952565b6040517f118cdaa7000000000000000000000000000000000000000000000000000000008152600401610c279190611c5d565b60405180910390fd5b565b600073ffffffffffffffffffffffffffffffffffffffff168273ffffffffffffffffffffffffffffffffffffffff1603610ca45760006040517fec442f05000000000000000000000000000000000000000000000000000000008152600401610c9b9190611c5d565b60405180910390fd5b610cb060008383611133565b5050565b6000600860009054906101000a900473ffffffffffffffffffffffffffffffffffffffff16905081600860006101000a81548173ffffffffffffffffffffffffffffffffffffffff021916908373ffffffffffffffffffffffffffffffffffffffff1602179055508173ffffffffffffffffffffffffffffffffffffffff168173ffffffffffffffffffffffffffffffffffffffff167f8be0079c531659141344cd1fd0a4f28419497f9722a3daafe3b4186f6b6457e060405160405180910390a35050565b600073ffffffffffffffffffffffffffffffffffffffff168273ffffffffffffffffffffffffffffffffffffffff1603610dec5760006040517f96c6fd1e000000000000000000000000000000000000000000000000000000008152600401610de39190611c5d565b60405180910390fd5b610df882600083611133565b5050565b6000600760008373ffffffffffffffffffffffffffffffffffffffff1673ffffffffffffffffffffffffffffffffffffffff168152602001908152602001600020549050919050565b6060610e7b60057f00000000000000000000000000000000000000000000000000000000000000006113ee90919063ffffffff16565b905090565b6060610eb660067f00000000000000000000000000000000000000000000000000000000000000006113ee90919063ffffffff16565b905090565b6000600760008373ffffffffffffffffffffffffffffffffffffffff1673ffffffffffffffffffffffffffffffffffffffff1681526020019081526020016000206000815480929190600101919050559050919050565b6000610f25610f1f610af4565b8361149e565b9050919050565b600080600080610f3e888888886114df565b925092509250610f4e82826115d3565b829350505050949350505050565b600073ffffffffffffffffffffffffffffffffffffffff168473ffffffffffffffffffffffffffffffffffffffff1603610fce5760006040517fe602df05000000000000000000000000000000000000000000000000000000008152600401610fc59190611c5d565b60405180910390fd5b600073ffffffffffffffffffffffffffffffffffffffff168373ffffffffffffffffffffffffffffffffffffffff16036110405760006040517f94280d620000000000000000000000000000000000000000000000000000000081526004016110379190611c5d565b60405180910390fd5b81600160008673ffffffffffffffffffffffffffffffffffffffff1673ffffffffffffffffffffffffffffffffffffffff16815260200190815260200160002060008573ffffffffffffffffffffffffffffffffffffffff1673ffffffffffffffffffffffffffffffffffffffff16815260200190815260200160002081905550801561112d578273ffffffffffffffffffffffffffffffffffffffff168473ffffffffffffffffffffffffffffffffffffffff167f8c5be1e5ebec7d5bd14f71427d1e84f3dd0314c0f7b2291e5b200ac8c7c3b9258460405161112491906119cb565b60405180910390a35b50505050565b600073ffffffffffffffffffffffffffffffffffffffff168373ffffffffffffffffffffffffffffffffffffffff16036111855780600260008282546111799190611f31565b92505081905550611258565b60008060008573ffffffffffffffffffffffffffffffffffffffff1673ffffffffffffffffffffffffffffffffffffffff16815260200190815260200160002054905081811015611211578381836040517fe450d38c00000000000000000000000000000000000000000000000000000000815260040161120893929190611ecb565b60405180910390fd5b8181036000808673ffffffffffffffffffffffffffffffffffffffff1673ffffffffffffffffffffffffffffffffffffffff16815260200190815260200160002081905550505b600073ffffffffffffffffffffffffffffffffffffffff168273ffffffffffffffffffffffffffffffffffffffff16036112a157806002600082825403925050819055506112ee565b806000808473ffffffffffffffffffffffffffffffffffffffff1673ffffffffffffffffffffffffffffffffffffffff168152602001908152602001600020600082825401925050819055505b8173ffffffffffffffffffffffffffffffffffffffff168373ffffffffffffffffffffffffffffffffffffffff167fddf252ad1be2c89b69c2b068fc378daa952ba7f163c4a11628f55a4df523b3ef8360405161134b91906119cb565b60405180910390a3505050565b60007f8b73c3c69bb8fe3d512ecc4cf759cc79239f7b179b0ffacaa9a75d522b39400f7f00000000000000000000000000000000000000000000000000000000000000007f000000000000000000000000000000000000000000000000000000000000000046306040516020016113d3959493929190611f65565b60405160208183030381529060405280519060200120905090565b606060ff60001b831461140b5761140483611737565b9050611498565b81805461141790611de1565b80601f016020809104026020016040519081016040528092919081815260200182805461144390611de1565b80156114905780601f1061146557610100808354040283529160200191611490565b820191906000526020600020905b81548152906001019060200180831161147357829003601f168201915b505050505090505b92915050565b60006040517f190100000000000000000000000000000000000000000000000000000000000081528360028201528260228201526042812091505092915050565b60008060007f7fffffffffffffffffffffffffffffff5d576e7357a4501ddfe92f46681b20a08460001c111561151f5760006003859250925092506115c9565b6000600188888888604051600081526020016040526040516115449493929190611fb8565b6020604051602081039080840390855afa158015611566573d6000803e3d6000fd5b505050602060405103519050600073ffffffffffffffffffffffffffffffffffffffff168173ffffffffffffffffffffffffffffffffffffffff16036115ba57600060016000801b935093509350506115c9565b8060008060001b935093509350505b9450945094915050565b600060038111156115e7576115e6611ffd565b5b8260038111156115fa576115f9611ffd565b5b0315611733576001600381111561161457611613611ffd565b5b82600381111561162757611626611ffd565b5b0361165e576040517ff645eedf00000000000000000000000000000000000000000000000000000000815260040160405180910390fd5b6002600381111561167257611671611ffd565b5b82600381111561168557611684611ffd565b5b036116ca578060001c6040517ffce698f70000000000000000000000000000000000000000000000000000000081526004016116c191906119cb565b60405180910390fd5b6003808111156116dd576116dc611ffd565b5b8260038111156116f0576116ef611ffd565b5b0361173257806040517fd78bce0c0000000000000000000000000000000000000000000000000000000081526004016117299190611a89565b60405180910390fd5b5b5050565b60606000611744836117ab565b90506000602067ffffffffffffffff81111561176357611762611e12565b5b6040519080825280601f01601f1916602001820160405280156117955781602001600182028036833780820191505090505b5090508181528360208201528092505050919050565b60008060ff8360001c169050601f8111156117f2576040517fb3512b0c00000000000000000000000000000000000000000000000000000000815260040160405180910390fd5b80915050919050565b600081519050919050565b600082825260208201905092915050565b60005b8381101561183557808201518184015260208101905061181a565b60008484015250505050565b6000601f19601f8301169050919050565b600061185d826117fb565b6118678185611806565b9350611877818560208601611817565b61188081611841565b840191505092915050565b600060208201905081810360008301526118a58184611852565b905092915050565b600080fd5b600073ffffffffffffffffffffffffffffffffffffffff82169050919050565b60006118dd826118b2565b9050919050565b6118ed816118d2565b81146118f857600080fd5b50565b60008135905061190a816118e4565b92915050565b6000819050919050565b61192381611910565b811461192e57600080fd5b50565b6000813590506119408161191a565b92915050565b6000806040838503121561195d5761195c6118ad565b5b600061196b858286016118fb565b925050602061197c85828601611931565b9150509250929050565b60008115159050919050565b61199b81611986565b82525050565b60006020820190506119b66000830184611992565b92915050565b6119c581611910565b82525050565b60006020820190506119e060008301846119bc565b92915050565b6000806000606084860312156119ff576119fe6118ad565b5b6000611a0d868287016118fb565b9350506020611a1e868287016118fb565b9250506040611a2f86828701611931565b9150509250925092565b600060ff82169050919050565b611a4f81611a39565b82525050565b6000602082019050611a6a6000830184611a46565b92915050565b6000819050919050565b611a8381611a70565b82525050565b6000602082019050611a9e6000830184611a7a565b92915050565b600060208284031215611aba57611ab96118ad565b5b6000611ac8848285016118fb565b91505092915050565b60007fff0000000000000000000000000000000000000000000000000000000000000082169050919050565b611b0681611ad1565b82525050565b611b15816118d2565b82525050565b600081519050919050565b600082825260208201905092915050565b6000819050602082019050919050565b611b5081611910565b82525050565b6000611b628383611b47565b60208301905092915050565b6000602082019050919050565b6000611b8682611b1b565b611b908185611b26565b9350611b9b83611b37565b8060005b83811015611bcc578151611bb38882611b56565b9750611bbe83611b6e565b925050600181019050611b9f565b5085935050505092915050565b600060e082019050611bee600083018a611afd565b8181036020830152611c008189611852565b90508181036040830152611c148188611852565b9050611c2360608301876119bc565b611c306080830186611b0c565b611c3d60a0830185611a7a565b81810360c0830152611c4f8184611b7b565b905098975050505050505050565b6000602082019050611c726000830184611b0c565b92915050565b611c8181611a39565b8114611c8c57600080fd5b50565b600081359050611c9e81611c78565b92915050565b611cad81611a70565b8114611cb857600080fd5b50565b600081359050611cca81611ca4565b92915050565b600080600080600080600060e0888a031215611cef57611cee6118ad565b5b6000611cfd8a828b016118fb565b9750506020611d0e8a828b016118fb565b9650506040611d1f8a828b01611931565b9550506060611d308a828b01611931565b9450506080611d418a828b01611c8f565b93505060a0611d528a828b01611cbb565b92505060c0611d638a828b01611cbb565b91505092959891949750929550565b60008060408385031215611d8957611d886118ad565b5b6000611d97858286016118fb565b9250506020611da8858286016118fb565b9150509250929050565b7f4e487b7100000000000000000000000000000000000000000000000000000000600052602260045260246000fd5b60006002820490506001821680611df957607f821691505b602082108103611e0c57611e0b611db2565b5b50919050565b7f4e487b7100000000000000000000000000000000000000000000000000000000600052604160045260246000fd5b600060c082019050611e566000830189611a7a565b611e636020830188611b0c565b611e706040830187611b0c565b611e7d60608301866119bc565b611e8a60808301856119bc565b611e9760a08301846119bc565b979650505050505050565b6000604082019050611eb76000830185611b0c565b611ec46020830184611b0c565b9392505050565b6000606082019050611ee06000830186611b0c565b611eed60208301856119bc565b611efa60408301846119bc565b949350505050565b7f4e487b7100000000000000000000000000000000000000000000000000000000600052601160045260246000fd5b6000611f3c82611910565b9150611f4783611910565b9250828201905080821115611f5f57611f5e611f02565b5b92915050565b600060a082019050611f7a6000830188611a7a565b611f876020830187611a7a565b611f946040830186611a7a565b611fa160608301856119bc565b611fae6080830184611b0c565b9695505050505050565b6000608082019050611fcd6000830187611a7a565b611fda6020830186611a46565b611fe76040830185611a7a565b611ff46060830184611a7a565b95945050505050565b7f4e487b7100000000000000000000000000000000000000000000000000000000600052602160045260246000fdfea26469706673582212205431915833dfdc8d7c7c70f9b858a29d9bfaa8220be0e1d4b0b7c1b00224a9f264736f6c634300081b0033",
  "linkReferences": {},
  "deployedLinkReferences": {}
}