{
  "_format": "hh-sol-artifact-1",
  "contractName": "aUSDManager",
  "sourceName": "contracts/aUSDManager.sol",
  "abi": [
    {
      "inputs": [
        {
          "internalType": "address",
          "name": "_aUSDToken",
          "type": "address"
        },
        {
          "internalType": "address",
          "name": "_usdcToken",
          "type": "address"
        }
      ],
      "stateMutability": "nonpayable",
      "type": "constructor"
    },
    {
      "inputs": [
        {
          "internalType": "address",
          "name": "owner",
          "type": "address"
        }
      ],
      "name": "OwnableInvalidOwner",
      "type": "error"
    },
    {
      "inputs": [
        {
          "internalType": "address",
          "name": "account",
          "type": "address"
        }
      ],
      "name": "OwnableUnauthorizedAccount",
      "type": "error"
    },
    {
      "inputs": [],
      "name": "ReentrancyGuardReentrantCall",
      "type": "error"
    },
    {
      "anonymous": false,
      "inputs": [
        {
          "indexed": true,
          "internalType": "address",
          "name": "user",
          "type": "address"
        },
        {
          "indexed": false,
          "internalType": "uint256",
          "name": "usdcAmount",
          "type": "uint256"
        },
        {
          "indexed": false,
          "internalType": "uint256",
          "name": "aUSDMinted",
          "type": "uint256"
        }
      ],
      "name": "Deposited",
      "type": "event"
    },
    {
      "anonymous": false,
      "inputs": [
        {
          "indexed": true,
          "internalType": "address",
          "name": "previousOwner",
          "type": "address"
        },
        {
          "indexed": true,
          "internalType": "address",
          "name": "newOwner",
          "type": "address"
        }
      ],
      "name": "OwnershipTransferred",
      "type": "event"
    },
    {
      "inputs": [],
      "name": "EDEN_POOL_PROXY",
      "outputs": [
        {
          "internalType": "address",
          "name": "",
          "type": "address"
        }
      ],
      "stateMutability": "view",
      "type": "function"
    },
    {
      "inputs": [],
      "name": "USDCToken",
      "outputs": [
        {
          "internalType": "contract IERC20",
          "name": "",
          "type": "address"
        }
      ],
      "stateMutability": "view",
      "type": "function"
    },
    {
      "inputs": [],
      "name": "aUSDTokenContract",
      "outputs": [
        {
          "internalType": "contract aUSDToken",
          "name": "",
          "type": "address"
        }
      ],
      "stateMutability": "view",
      "type": "function"
    },
    {
      "inputs": [
        {
          "internalType": "uint256",
          "name": "amount",
          "type": "uint256"
        }
      ],
      "name": "deposit",
      "outputs": [],
      "stateMutability": "nonpayable",
      "type": "function"
    },
    {
      "inputs": [],
      "name": "owner",
      "outputs": [
        {
          "internalType": "address",
          "name": "",
          "type": "address"
        }
      ],
      "stateMutability": "view",
      "type": "function"
    },
    {
      "inputs": [],
      "name": "renounceOwnership",
      "outputs": [],
      "stateMutability": "nonpayable",
      "type": "function"
    },
    {
      "inputs": [
        {
          "internalType": "address",
          "name": "newOwner",
          "type": "address"
        }
      ],
      "name": "transferOwnership",
      "outputs": [],
      "stateMutability": "nonpayable",
      "type": "function"
    }
  ],
  "bytecode": "0x608060405234801561001057600080fd5b50604051610ef2380380610ef28339818101604052810190610032919061026c565b33600073ffffffffffffffffffffffffffffffffffffffff168173ffffffffffffffffffffffffffffffffffffffff16036100a55760006040517f1e4fbdf700000000000000000000000000000000000000000000000000000000815260040161009c91906102bb565b60405180910390fd5b6100b48161014560201b60201c565b506001808190555081600260006101000a81548173ffffffffffffffffffffffffffffffffffffffff021916908373ffffffffffffffffffffffffffffffffffffffff16021790555080600360006101000a81548173ffffffffffffffffffffffffffffffffffffffff021916908373ffffffffffffffffffffffffffffffffffffffff16021790555050506102d6565b60008060009054906101000a900473ffffffffffffffffffffffffffffffffffffffff169050816000806101000a81548173ffffffffffffffffffffffffffffffffffffffff021916908373ffffffffffffffffffffffffffffffffffffffff1602179055508173ffffffffffffffffffffffffffffffffffffffff168173ffffffffffffffffffffffffffffffffffffffff167f8be0079c531659141344cd1fd0a4f28419497f9722a3daafe3b4186f6b6457e060405160405180910390a35050565b600080fd5b600073ffffffffffffffffffffffffffffffffffffffff82169050919050565b60006102398261020e565b9050919050565b6102498161022e565b811461025457600080fd5b50565b60008151905061026681610240565b92915050565b6000806040838503121561028357610282610209565b5b600061029185828601610257565b92505060206102a285828601610257565b9150509250929050565b6102b58161022e565b82525050565b60006020820190506102d060008301846102ac565b92915050565b610c0d806102e56000396000f3fe608060405234801561001057600080fd5b506004361061007d5760003560e01c80638da5cb5b1161005b5780638da5cb5b146100c8578063b6b55f25146100e6578063e71538e814610102578063f2fde38b146101205761007d565b80633e662c74146100825780634c34c8de146100a0578063715018a6146100be575b600080fd5b61008a61013c565b604051610097919061078c565b60405180910390f35b6100a8610162565b6040516100b591906107c8565b60405180910390f35b6100c6610188565b005b6100d061019c565b6040516100dd9190610804565b60405180910390f35b61010060048036038101906100fb919061085a565b6101c5565b005b61010a6104cd565b6040516101179190610804565b60405180910390f35b61013a600480360381019061013591906108b3565b6104e5565b005b600260009054906101000a900473ffffffffffffffffffffffffffffffffffffffff1681565b600360009054906101000a900473ffffffffffffffffffffffffffffffffffffffff1681565b61019061056b565b61019a60006105f2565b565b60008060009054906101000a900473ffffffffffffffffffffffffffffffffffffffff16905090565b6101cd6106b6565b60008111610210576040517f08c379a00000000000000000000000000000000000000000000000000000000081526004016102079061093d565b60405180910390fd5b6000600360009054906101000a900473ffffffffffffffffffffffffffffffffffffffff1673ffffffffffffffffffffffffffffffffffffffff1663dd62ed3e33306040518363ffffffff1660e01b815260040161026f92919061095d565b602060405180830381865afa15801561028c573d6000803e3d6000fd5b505050506040513d601f19601f820116820180604052508101906102b0919061099b565b9050818110156102f5576040517f08c379a00000000000000000000000000000000000000000000000000000000081526004016102ec90610a14565b60405180910390fd5b6000600360009054906101000a900473ffffffffffffffffffffffffffffffffffffffff1673ffffffffffffffffffffffffffffffffffffffff166323b872dd3330866040518463ffffffff1660e01b815260040161035693929190610a43565b6020604051808303816000875af1158015610375573d6000803e3d6000fd5b505050506040513d601f19601f820116820180604052508101906103999190610ab2565b9050806103db576040517f08c379a00000000000000000000000000000000000000000000000000000000081526004016103d290610b2b565b60405180910390fd5b600260009054906101000a900473ffffffffffffffffffffffffffffffffffffffff1673ffffffffffffffffffffffffffffffffffffffff166340c10f1933856040518363ffffffff1660e01b8152600401610438929190610b4b565b600060405180830381600087803b15801561045257600080fd5b505af1158015610466573d6000803e3d6000fd5b5050505082600460003373ffffffffffffffffffffffffffffffffffffffff1673ffffffffffffffffffffffffffffffffffffffff16815260200190815260200160002060008282546104b99190610ba3565b9250508190555050506104ca6106fc565b50565b730eb0e45d670e23cd1e1a94efdd26d93afca2cdfe81565b6104ed61056b565b600073ffffffffffffffffffffffffffffffffffffffff168173ffffffffffffffffffffffffffffffffffffffff160361055f5760006040517f1e4fbdf70000000000000000000000000000000000000000000000000000000081526004016105569190610804565b60405180910390fd5b610568816105f2565b50565b610573610705565b73ffffffffffffffffffffffffffffffffffffffff1661059161019c565b73ffffffffffffffffffffffffffffffffffffffff16146105f0576105b4610705565b6040517f118cdaa70000000000000000000000000000000000000000000000000000000081526004016105e79190610804565b60405180910390fd5b565b60008060009054906101000a900473ffffffffffffffffffffffffffffffffffffffff169050816000806101000a81548173ffffffffffffffffffffffffffffffffffffffff021916908373ffffffffffffffffffffffffffffffffffffffff1602179055508173ffffffffffffffffffffffffffffffffffffffff168173ffffffffffffffffffffffffffffffffffffffff167f8be0079c531659141344cd1fd0a4f28419497f9722a3daafe3b4186f6b6457e060405160405180910390a35050565b6002600154036106f2576040517f3ee5aeb500000000000000000000000000000000000000000000000000000000815260040160405180910390fd5b6002600181905550565b60018081905550565b600033905090565b600073ffffffffffffffffffffffffffffffffffffffff82169050919050565b6000819050919050565b600061075261074d6107488461070d565b61072d565b61070d565b9050919050565b600061076482610737565b9050919050565b600061077682610759565b9050919050565b6107868161076b565b82525050565b60006020820190506107a1600083018461077d565b92915050565b60006107b282610759565b9050919050565b6107c2816107a7565b82525050565b60006020820190506107dd60008301846107b9565b92915050565b60006107ee8261070d565b9050919050565b6107fe816107e3565b82525050565b600060208201905061081960008301846107f5565b92915050565b600080fd5b6000819050919050565b61083781610824565b811461084257600080fd5b50565b6000813590506108548161082e565b92915050565b6000602082840312156108705761086f61081f565b5b600061087e84828501610845565b91505092915050565b610890816107e3565b811461089b57600080fd5b50565b6000813590506108ad81610887565b92915050565b6000602082840312156108c9576108c861081f565b5b60006108d78482850161089e565b91505092915050565b600082825260208201905092915050565b7f616d6f756e74206d757374206265206120706f736974697665206e756d626572600082015250565b60006109276020836108e0565b9150610932826108f1565b602082019050919050565b600060208201905081810360008301526109568161091a565b9050919050565b600060408201905061097260008301856107f5565b61097f60208301846107f5565b9392505050565b6000815190506109958161082e565b92915050565b6000602082840312156109b1576109b061081f565b5b60006109bf84828501610986565b91505092915050565b7f696e73756666696369656e7420616c6c6f77616e63652e000000000000000000600082015250565b60006109fe6017836108e0565b9150610a09826109c8565b602082019050919050565b60006020820190508181036000830152610a2d816109f1565b9050919050565b610a3d81610824565b82525050565b6000606082019050610a5860008301866107f5565b610a6560208301856107f5565b610a726040830184610a34565b949350505050565b60008115159050919050565b610a8f81610a7a565b8114610a9a57600080fd5b50565b600081519050610aac81610a86565b92915050565b600060208284031215610ac857610ac761081f565b5b6000610ad684828501610a9d565b91505092915050565b7f7472616e73616374696f6e206661696c65640000000000000000000000000000600082015250565b6000610b156012836108e0565b9150610b2082610adf565b602082019050919050565b60006020820190508181036000830152610b4481610b08565b9050919050565b6000604082019050610b6060008301856107f5565b610b6d6020830184610a34565b9392505050565b7f4e487b7100000000000000000000000000000000000000000000000000000000600052601160045260246000fd5b6000610bae82610824565b9150610bb983610824565b9250828201905080821115610bd157610bd0610b74565b5b9291505056fea264697066735822122029c84bdd42bae4425cca03d90c92eafb92143ab3221becc631f79de1404dcab664736f6c634300081b0033",
  "linkReferences": {},
  "deployedLinkReferences": {}
}