{
  "_format": "hh-sol-artifact-1",
  "contractName": "aUSDManager",
  "sourceName": "contracts/aUSDManager.sol",
  "abi": [
    {
      "inputs": [
        {
          "internalType": "address",
          "name": "_aUSDToken",
          "type": "address"
        },
        {
          "internalType": "address",
          "name": "_usdcToken",
          "type": "address"
        },
        {
          "internalType": "address",
          "name": "_aUSDCToken",
          "type": "address"
        }
      ],
      "stateMutability": "nonpayable",
      "type": "constructor"
    },
    {
      "inputs": [
        {
          "internalType": "address",
          "name": "owner",
          "type": "address"
        }
      ],
      "name": "OwnableInvalidOwner",
      "type": "error"
    },
    {
      "inputs": [
        {
          "internalType": "address",
          "name": "account",
          "type": "address"
        }
      ],
      "name": "OwnableUnauthorizedAccount",
      "type": "error"
    },
    {
      "inputs": [],
      "name": "ReentrancyGuardReentrantCall",
      "type": "error"
    },
    {
      "anonymous": false,
      "inputs": [
        {
          "indexed": true,
          "internalType": "address",
          "name": "user",
          "type": "address"
        },
        {
          "indexed": false,
          "internalType": "uint256",
          "name": "usdcAmount",
          "type": "uint256"
        },
        {
          "indexed": false,
          "internalType": "uint256",
          "name": "aUSDMinted",
          "type": "uint256"
        },
        {
          "indexed": false,
          "internalType": "uint256",
          "name": "timestamp",
          "type": "uint256"
        }
      ],
      "name": "Deposited",
      "type": "event"
    },
    {
      "anonymous": false,
      "inputs": [
        {
          "indexed": true,
          "internalType": "address",
          "name": "previousOwner",
          "type": "address"
        },
        {
          "indexed": true,
          "internalType": "address",
          "name": "newOwner",
          "type": "address"
        }
      ],
      "name": "OwnershipTransferred",
      "type": "event"
    },
    {
      "anonymous": false,
      "inputs": [
        {
          "indexed": true,
          "internalType": "address",
          "name": "user",
          "type": "address"
        },
        {
          "indexed": false,
          "internalType": "uint256",
          "name": "usdcAmount",
          "type": "uint256"
        },
        {
          "indexed": false,
          "internalType": "uint256",
          "name": "aUSDBurned",
          "type": "uint256"
        },
        {
          "indexed": false,
          "internalType": "uint256",
          "name": "timestamp",
          "type": "uint256"
        }
      ],
      "name": "Withdrawn",
      "type": "event"
    },
    {
      "inputs": [],
      "name": "EDEN_POOL_PROXY",
      "outputs": [
        {
          "internalType": "address",
          "name": "",
          "type": "address"
        }
      ],
      "stateMutability": "view",
      "type": "function"
    },
    {
      "inputs": [],
      "name": "USDCToken",
      "outputs": [
        {
          "internalType": "contract IERC20",
          "name": "",
          "type": "address"
        }
      ],
      "stateMutability": "view",
      "type": "function"
    },
    {
      "inputs": [],
      "name": "aUSDCToken",
      "outputs": [
        {
          "internalType": "contract IAToken",
          "name": "",
          "type": "address"
        }
      ],
      "stateMutability": "view",
      "type": "function"
    },
    {
      "inputs": [],
      "name": "aUSDTokenContract",
      "outputs": [
        {
          "internalType": "contract ERC20PermitOwnable",
          "name": "",
          "type": "address"
        }
      ],
      "stateMutability": "view",
      "type": "function"
    },
    {
      "inputs": [
        {
          "internalType": "uint256",
          "name": "amount",
          "type": "uint256"
        }
      ],
      "name": "deposit",
      "outputs": [],
      "stateMutability": "nonpayable",
      "type": "function"
    },
    {
      "inputs": [
        {
          "internalType": "address",
          "name": "",
          "type": "address"
        }
      ],
      "name": "deposits",
      "outputs": [
        {
          "internalType": "uint256",
          "name": "",
          "type": "uint256"
        }
      ],
      "stateMutability": "view",
      "type": "function"
    },
    {
      "inputs": [],
      "name": "owner",
      "outputs": [
        {
          "internalType": "address",
          "name": "",
          "type": "address"
        }
      ],
      "stateMutability": "view",
      "type": "function"
    },
    {
      "inputs": [],
      "name": "renounceOwnership",
      "outputs": [],
      "stateMutability": "nonpayable",
      "type": "function"
    },
    {
      "inputs": [
        {
          "internalType": "address",
          "name": "newOwner",
          "type": "address"
        }
      ],
      "name": "transferOwnership",
      "outputs": [],
      "stateMutability": "nonpayable",
      "type": "function"
    },
    {
      "inputs": [
        {
          "internalType": "uint256",
          "name": "amount",
          "type": "uint256"
        }
      ],
      "name": "withdraw",
      "outputs": [],
      "stateMutability": "nonpayable",
      "type": "function"
    }
  ],
  "bytecode": "0x60c060405234801561001057600080fd5b5060405161222f38038061222f833981810160405281019061003291906103e1565b33600073ffffffffffffffffffffffffffffffffffffffff168173ffffffffffffffffffffffffffffffffffffffff16036100a55760006040517f1e4fbdf700000000000000000000000000000000000000000000000000000000815260040161009c9190610443565b60405180910390fd5b6100b4816102ba60201b60201c565b5060018081905550600073ffffffffffffffffffffffffffffffffffffffff168373ffffffffffffffffffffffffffffffffffffffff160361012b576040517f08c379a0000000000000000000000000000000000000000000000000000000008152600401610122906104bb565b60405180910390fd5b600073ffffffffffffffffffffffffffffffffffffffff168273ffffffffffffffffffffffffffffffffffffffff160361019a576040517f08c379a000000000000000000000000000000000000000000000000000000000815260040161019190610527565b60405180910390fd5b600073ffffffffffffffffffffffffffffffffffffffff168173ffffffffffffffffffffffffffffffffffffffff1603610209576040517f08c379a000000000000000000000000000000000000000000000000000000000815260040161020090610593565b60405180910390fd5b82600260006101000a81548173ffffffffffffffffffffffffffffffffffffffff021916908373ffffffffffffffffffffffffffffffffffffffff1602179055508173ffffffffffffffffffffffffffffffffffffffff1660808173ffffffffffffffffffffffffffffffffffffffff16815250508073ffffffffffffffffffffffffffffffffffffffff1660a08173ffffffffffffffffffffffffffffffffffffffff16815250505050506105b3565b60008060009054906101000a900473ffffffffffffffffffffffffffffffffffffffff169050816000806101000a81548173ffffffffffffffffffffffffffffffffffffffff021916908373ffffffffffffffffffffffffffffffffffffffff1602179055508173ffffffffffffffffffffffffffffffffffffffff168173ffffffffffffffffffffffffffffffffffffffff167f8be0079c531659141344cd1fd0a4f28419497f9722a3daafe3b4186f6b6457e060405160405180910390a35050565b600080fd5b600073ffffffffffffffffffffffffffffffffffffffff82169050919050565b60006103ae82610383565b9050919050565b6103be816103a3565b81146103c957600080fd5b50565b6000815190506103db816103b5565b92915050565b6000806000606084860312156103fa576103f961037e565b5b6000610408868287016103cc565b9350506020610419868287016103cc565b925050604061042a868287016103cc565b9150509250925092565b61043d816103a3565b82525050565b60006020820190506104586000830184610434565b92915050565b600082825260208201905092915050565b7f496e76616c6964206155534420746f6b656e2061646472657373000000000000600082015250565b60006104a5601a8361045e565b91506104b08261046f565b602082019050919050565b600060208201905081810360008301526104d481610498565b9050919050565b7f496e76616c6964205553444320746f6b656e2061646472657373000000000000600082015250565b6000610511601a8361045e565b915061051c826104db565b602082019050919050565b6000602082019050818103600083015261054081610504565b9050919050565b7f496e76616c696420615553444320746f6b656e20616464726573730000000000600082015250565b600061057d601b8361045e565b915061058882610547565b602082019050919050565b600060208201905081810360008301526105ac81610570565b9050919050565b60805160a051611c1161061e60003960008181610297015281816104e601528181610af001528181610d2a0152610f62015260008181610607015281816106c40152818161087b0152818161092901528181610a0c01528181610b8c0152610c6f0152611c116000f3fe608060405234801561001057600080fd5b506004361061009e5760003560e01c8063b6b55f2511610066578063b6b55f2514610123578063e71538e81461013f578063ef777b421461015d578063f2fde38b1461017b578063fc7e286d146101975761009e565b80632e1a7d4d146100a35780633e662c74146100bf5780634c34c8de146100dd578063715018a6146100fb5780638da5cb5b14610105575b600080fd5b6100bd60048036038101906100b891906111ff565b6101c7565b005b6100c7610853565b6040516100d491906112ab565b60405180910390f35b6100e5610879565b6040516100f291906112e7565b60405180910390f35b61010361089d565b005b61010d6108b1565b60405161011a9190611323565b60405180910390f35b61013d600480360381019061013891906111ff565b6108da565b005b610147610f48565b6040516101549190611323565b60405180910390f35b610165610f60565b604051610172919061135f565b60405180910390f35b610195600480360381019061019091906113a6565b610f84565b005b6101b160048036038101906101ac91906113a6565b61100a565b6040516101be91906113e2565b60405180910390f35b6101cf611022565b60008111610212576040517f08c379a00000000000000000000000000000000000000000000000000000000081526004016102099061145a565b60405180910390fd5b80600360003373ffffffffffffffffffffffffffffffffffffffff1673ffffffffffffffffffffffffffffffffffffffff168152602001908152602001600020541015610294576040517f08c379a000000000000000000000000000000000000000000000000000000000815260040161028b906114c6565b60405180910390fd5b807f000000000000000000000000000000000000000000000000000000000000000073ffffffffffffffffffffffffffffffffffffffff166370a08231306040518263ffffffff1660e01b81526004016102ee9190611323565b602060405180830381865afa15801561030b573d6000803e3d6000fd5b505050506040513d601f19601f8201168201806040525081019061032f91906114fb565b1015610370576040517f08c379a000000000000000000000000000000000000000000000000000000000815260040161036790611574565b60405180910390fd5b6000600260009054906101000a900473ffffffffffffffffffffffffffffffffffffffff1673ffffffffffffffffffffffffffffffffffffffff1663dd62ed3e33306040518363ffffffff1660e01b81526004016103cf929190611594565b602060405180830381865afa1580156103ec573d6000803e3d6000fd5b505050506040513d601f19601f8201168201806040525081019061041091906114fb565b905081811015610455576040517f08c379a000000000000000000000000000000000000000000000000000000000815260040161044c9061162f565b60405180910390fd5b600260009054906101000a900473ffffffffffffffffffffffffffffffffffffffff1673ffffffffffffffffffffffffffffffffffffffff166379cc679033846040518363ffffffff1660e01b81526004016104b292919061164f565b600060405180830381600087803b1580156104cc57600080fd5b505af11580156104e0573d6000803e3d6000fd5b505050507f000000000000000000000000000000000000000000000000000000000000000073ffffffffffffffffffffffffffffffffffffffff1663095ea7b3730eb0e45d670e23cd1e1a94efdd26d93afca2cdfe846040518363ffffffff1660e01b815260040161055392919061164f565b6020604051808303816000875af1158015610572573d6000803e3d6000fd5b505050506040513d601f19601f8201168201806040525081019061059691906116b0565b6105d5576040517f08c379a00000000000000000000000000000000000000000000000000000000081526004016105cc90611729565b60405180910390fd5b730eb0e45d670e23cd1e1a94efdd26d93afca2cdfe73ffffffffffffffffffffffffffffffffffffffff166369328dec7f000000000000000000000000000000000000000000000000000000000000000084306040518463ffffffff1660e01b815260040161064693929190611749565b6020604051808303816000875af192505050801561068257506040513d601f19601f8201168201806040525081019061067f91906114fb565b60015b6106c1576040517f08c379a00000000000000000000000000000000000000000000000000000000081526004016106b8906117cc565b60405180910390fd5b507f000000000000000000000000000000000000000000000000000000000000000073ffffffffffffffffffffffffffffffffffffffff1663a9059cbb33846040518363ffffffff1660e01b815260040161071d92919061164f565b6020604051808303816000875af115801561073c573d6000803e3d6000fd5b505050506040513d601f19601f8201168201806040525081019061076091906116b0565b61079f576040517f08c379a000000000000000000000000000000000000000000000000000000000815260040161079690611838565b60405180910390fd5b81600360003373ffffffffffffffffffffffffffffffffffffffff1673ffffffffffffffffffffffffffffffffffffffff16815260200190815260200160002060008282546107ee9190611887565b925050819055503373ffffffffffffffffffffffffffffffffffffffff167f75e161b3e824b114fc1a33274bd7091918dd4e639cede50b78b15a4eea956a2183844260405161083f939291906118bb565b60405180910390a250610850611068565b50565b600260009054906101000a900473ffffffffffffffffffffffffffffffffffffffff1681565b7f000000000000000000000000000000000000000000000000000000000000000081565b6108a5611071565b6108af60006110f8565b565b60008060009054906101000a900473ffffffffffffffffffffffffffffffffffffffff16905090565b6108e2611022565b60008111610925576040517f08c379a000000000000000000000000000000000000000000000000000000000815260040161091c9061193e565b60405180910390fd5b60007f000000000000000000000000000000000000000000000000000000000000000073ffffffffffffffffffffffffffffffffffffffff1663dd62ed3e33306040518363ffffffff1660e01b8152600401610982929190611594565b602060405180830381865afa15801561099f573d6000803e3d6000fd5b505050506040513d601f19601f820116820180604052508101906109c391906114fb565b905081811015610a08576040517f08c379a00000000000000000000000000000000000000000000000000000000081526004016109ff906119aa565b60405180910390fd5b60007f000000000000000000000000000000000000000000000000000000000000000073ffffffffffffffffffffffffffffffffffffffff166323b872dd3330866040518463ffffffff1660e01b8152600401610a67939291906119ca565b6020604051808303816000875af1158015610a86573d6000803e3d6000fd5b505050506040513d601f19601f82011682018060405250810190610aaa91906116b0565b905080610aec576040517f08c379a0000000000000000000000000000000000000000000000000000000008152600401610ae390611a4d565b60405180910390fd5b60007f000000000000000000000000000000000000000000000000000000000000000073ffffffffffffffffffffffffffffffffffffffff166370a08231306040518263ffffffff1660e01b8152600401610b479190611323565b602060405180830381865afa158015610b64573d6000803e3d6000fd5b505050506040513d601f19601f82011682018060405250810190610b8891906114fb565b90507f000000000000000000000000000000000000000000000000000000000000000073ffffffffffffffffffffffffffffffffffffffff1663095ea7b3730eb0e45d670e23cd1e1a94efdd26d93afca2cdfe866040518363ffffffff1660e01b8152600401610bf992919061164f565b6020604051808303816000875af1158015610c18573d6000803e3d6000fd5b505050506040513d601f19601f82011682018060405250810190610c3c91906116b0565b50730eb0e45d670e23cd1e1a94efdd26d93afca2cdfe73ffffffffffffffffffffffffffffffffffffffff1663617ba0377f000000000000000000000000000000000000000000000000000000000000000086306180b06040518563ffffffff1660e01b8152600401610cb29493929190611a8a565b600060405180830381600087803b158015610ccc57600080fd5b505af1925050508015610cdd575060015b610d1c576040517f08c379a0000000000000000000000000000000000000000000000000000000008152600401610d1390611b1b565b60405180910390fd5b8381610d289190611b3b565b7f000000000000000000000000000000000000000000000000000000000000000073ffffffffffffffffffffffffffffffffffffffff166370a08231306040518263ffffffff1660e01b8152600401610d819190611323565b602060405180830381865afa158015610d9e573d6000803e3d6000fd5b505050506040513d601f19601f82011682018060405250810190610dc291906114fb565b1015610e03576040517f08c379a0000000000000000000000000000000000000000000000000000000008152600401610dfa90611bbb565b60405180910390fd5b600260009054906101000a900473ffffffffffffffffffffffffffffffffffffffff1673ffffffffffffffffffffffffffffffffffffffff166340c10f1933866040518363ffffffff1660e01b8152600401610e6092919061164f565b600060405180830381600087803b158015610e7a57600080fd5b505af1158015610e8e573d6000803e3d6000fd5b5050505083600360003373ffffffffffffffffffffffffffffffffffffffff1673ffffffffffffffffffffffffffffffffffffffff1681526020019081526020016000206000828254610ee19190611b3b565b925050819055503373ffffffffffffffffffffffffffffffffffffffff167f91ede45f04a37a7c170f5c1207df3b6bc748dc1e04ad5e917a241d0f52feada3858642604051610f32939291906118bb565b60405180910390a2505050610f45611068565b50565b730eb0e45d670e23cd1e1a94efdd26d93afca2cdfe81565b7f000000000000000000000000000000000000000000000000000000000000000081565b610f8c611071565b600073ffffffffffffffffffffffffffffffffffffffff168173ffffffffffffffffffffffffffffffffffffffff1603610ffe5760006040517f1e4fbdf7000000000000000000000000000000000000000000000000000000008152600401610ff59190611323565b60405180910390fd5b611007816110f8565b50565b60036020528060005260406000206000915090505481565b60026001540361105e576040517f3ee5aeb500000000000000000000000000000000000000000000000000000000815260040160405180910390fd5b6002600181905550565b60018081905550565b6110796111bc565b73ffffffffffffffffffffffffffffffffffffffff166110976108b1565b73ffffffffffffffffffffffffffffffffffffffff16146110f6576110ba6111bc565b6040517f118cdaa70000000000000000000000000000000000000000000000000000000081526004016110ed9190611323565b60405180910390fd5b565b60008060009054906101000a900473ffffffffffffffffffffffffffffffffffffffff169050816000806101000a81548173ffffffffffffffffffffffffffffffffffffffff021916908373ffffffffffffffffffffffffffffffffffffffff1602179055508173ffffffffffffffffffffffffffffffffffffffff168173ffffffffffffffffffffffffffffffffffffffff167f8be0079c531659141344cd1fd0a4f28419497f9722a3daafe3b4186f6b6457e060405160405180910390a35050565b600033905090565b600080fd5b6000819050919050565b6111dc816111c9565b81146111e757600080fd5b50565b6000813590506111f9816111d3565b92915050565b600060208284031215611215576112146111c4565b5b6000611223848285016111ea565b91505092915050565b600073ffffffffffffffffffffffffffffffffffffffff82169050919050565b6000819050919050565b600061127161126c6112678461122c565b61124c565b61122c565b9050919050565b600061128382611256565b9050919050565b600061129582611278565b9050919050565b6112a58161128a565b82525050565b60006020820190506112c0600083018461129c565b92915050565b60006112d182611278565b9050919050565b6112e1816112c6565b82525050565b60006020820190506112fc60008301846112d8565b92915050565b600061130d8261122c565b9050919050565b61131d81611302565b82525050565b60006020820190506113386000830184611314565b92915050565b600061134982611278565b9050919050565b6113598161133e565b82525050565b60006020820190506113746000830184611350565b92915050565b61138381611302565b811461138e57600080fd5b50565b6000813590506113a08161137a565b92915050565b6000602082840312156113bc576113bb6111c4565b5b60006113ca84828501611391565b91505092915050565b6113dc816111c9565b82525050565b60006020820190506113f760008301846113d3565b92915050565b600082825260208201905092915050565b7f416d6f756e74206d75737420626520706f736974697665000000000000000000600082015250565b60006114446017836113fd565b915061144f8261140e565b602082019050919050565b6000602082019050818103600083015261147381611437565b9050919050565b7f496e73756666696369656e74206465706f736974000000000000000000000000600082015250565b60006114b06014836113fd565b91506114bb8261147a565b602082019050919050565b600060208201905081810360008301526114df816114a3565b9050919050565b6000815190506114f5816111d3565b92915050565b600060208284031215611511576115106111c4565b5b600061151f848285016114e6565b91505092915050565b7f496e73756666696369656e742061546f6b656e2062616c616e63650000000000600082015250565b600061155e601b836113fd565b915061156982611528565b602082019050919050565b6000602082019050818103600083015261158d81611551565b9050919050565b60006040820190506115a96000830185611314565b6115b66020830184611314565b9392505050565b7f4e6f7420656e6f75676820616c6c6f77616e636520746f206275726e20746f6b60008201527f656e730000000000000000000000000000000000000000000000000000000000602082015250565b60006116196023836113fd565b9150611624826115bd565b604082019050919050565b600060208201905081810360008301526116488161160c565b9050919050565b60006040820190506116646000830185611314565b61167160208301846113d3565b9392505050565b60008115159050919050565b61168d81611678565b811461169857600080fd5b50565b6000815190506116aa81611684565b92915050565b6000602082840312156116c6576116c56111c4565b5b60006116d48482850161169b565b91505092915050565b7f506f6f6c20617070726f76616c206661696c6564000000000000000000000000600082015250565b60006117136014836113fd565b915061171e826116dd565b602082019050919050565b6000602082019050818103600083015261174281611706565b9050919050565b600060608201905061175e6000830186611314565b61176b60208301856113d3565b6117786040830184611314565b949350505050565b7f506f6f6c207769746864726177616c206661696c656400000000000000000000600082015250565b60006117b66016836113fd565b91506117c182611780565b602082019050919050565b600060208201905081810360008301526117e5816117a9565b9050919050565b7f55534443207472616e73666572206661696c6564000000000000000000000000600082015250565b60006118226014836113fd565b915061182d826117ec565b602082019050919050565b6000602082019050818103600083015261185181611815565b9050919050565b7f4e487b7100000000000000000000000000000000000000000000000000000000600052601160045260246000fd5b6000611892826111c9565b915061189d836111c9565b92508282039050818111156118b5576118b4611858565b5b92915050565b60006060820190506118d060008301866113d3565b6118dd60208301856113d3565b6118ea60408301846113d3565b949350505050565b7f616d6f756e74206d757374206265206120706f736974697665206e756d626572600082015250565b60006119286020836113fd565b9150611933826118f2565b602082019050919050565b600060208201905081810360008301526119578161191b565b9050919050565b7f696e73756666696369656e7420616c6c6f77616e63652e000000000000000000600082015250565b60006119946017836113fd565b915061199f8261195e565b602082019050919050565b600060208201905081810360008301526119c381611987565b9050919050565b60006060820190506119df6000830186611314565b6119ec6020830185611314565b6119f960408301846113d3565b949350505050565b7f7472616e73616374696f6e206661696c65640000000000000000000000000000600082015250565b6000611a376012836113fd565b9150611a4282611a01565b602082019050919050565b60006020820190508181036000830152611a6681611a2a565b9050919050565b600061ffff82169050919050565b611a8481611a6d565b82525050565b6000608082019050611a9f6000830187611314565b611aac60208301866113d3565b611ab96040830185611314565b611ac66060830184611a7b565b95945050505050565b7f506f6f6c20737570706c79206661696c65640000000000000000000000000000600082015250565b6000611b056012836113fd565b9150611b1082611acf565b602082019050919050565b60006020820190508181036000830152611b3481611af8565b9050919050565b6000611b46826111c9565b9150611b51836111c9565b9250828201905080821115611b6957611b68611858565b5b92915050565b7f61546f6b656e206d696e74696e67206661696c65640000000000000000000000600082015250565b6000611ba56015836113fd565b9150611bb082611b6f565b602082019050919050565b60006020820190508181036000830152611bd481611b98565b905091905056fea2646970667358221220834b878cc8978913ddf2f713fd253eb670b48e9031141b1ae3f21bf4bc0d00d364736f6c634300081b0033",
  "linkReferences": {},
  "deployedLinkReferences": {}
}